:10000000F8C0000027C1000025C1000023C1000086
:1000100021C100001FC100001DC100001BC1000064
:1000200019C1000017C1000015C1000013C1000074
:1000300011C100000FC100000DC100000BC1000084
:1000400009C1000007C1000005C1000003C1000094
:1000500001C10000FFC00000FDC000000C94BA24E4
:10006000F9C000000C94DD270C941328F3C00000A5
:10007000F1C00000EFC00000EDC00000EBC00000C8
:10008000E9C00000E7C00000E5C00000E3C00000D8
:100090000C9469280C949F28DDC00000DBC0000090
:1000A000D9C00000D7C00000D5C00000D3C00000F8
:1000B000D1C00000CFC00000CDC00000CBC0000008
:1000C000C9C00000C7C000000C9412210C94F52890
:1000D0000C942B29BFC000000C9481290C94B729E3
:1000E000B9C0000000000A0B02090C0D0E0807033E
:1000F00004010000000000000000000000000000FB
:1001000000000000000000000000000000000000EF
:1001100012111000000000000000000000000000AC
:100120000000000000000000000001021020200874
:100130000810204010204080020102010804020142
:1001400001020408102040808040201008040201B1
:10015000800402018040201008040201080402010A
:100160000102040810204080010204081020408091
:1001700005050505070508080808020202020A0A23
:100180000808040404040101010101010101030341
:10019000030303030303040707070C0C0C0C0C0CEC
:1001A0000C0C0202020206060606060606060B0BE9
:1001B0000B0B0B0B0B0B00002200250028002B0063
:1001C0002E003100340002010000050108010B017E
:1001D00000002100240027002A002D0030003300F9
:1001E00001010000040107010A013C28C828542924
:1001F000E02911241FBECFEFD1E2DEBFCDBF00E06A
:100200000CBF12E0A0E0B2E0EEE3F5E500E00BBFCA
:1002100002C007900D92AA3CB107D9F727E0AAECDB
:10022000B2E001C01D92A73CB207E1F710E0C9EFB0
:10023000D0E000E006C021970109802FFE010E9456
:100240006C2AC53FD10780E00807A9F70E942D223C
:100250000C949D2AD5CECF93DF93882349F0EB01F0
:1002600081500E94C12599838883DF91CF910895A1
:10027000FB0111821082F9CF0F931F938B019C0118
:1002800083E036952795179507958A95D1F70653FC
:100290001D4F462F477021E030E0F90102C0EE0FFC
:1002A000FF1F4A95E2F7AF01F80120812423CB011B
:1002B0000196211102C090E080E01F910F910895F6
:1002C0000F931F938B019C0183E03695279517951B
:1002D00007958A95D1F7677081E090E001C0880F9B
:1002E0006A95EAF7F801E653FD4F2081452B31F47A
:1002F0008095822380831F910F910895822BFACFDE
:10030000CF92DF92EF92FF92CF93DF936B017C014C
:1003100060E086E3C816D104E104F10490F486E3BA
:100320008C0D0E944A26E6012196AE01C701B60156
:10033000C7DFCE01DF91CF91FF90EF90DF90CF909C
:1003400008958C2DEECF882341F08150682F70E006
:1003500090E080E050E040E0B3CF0895611102C02A
:100360000C944A266130E1F362E0FACF662319F07B
:1003700061E00C94862660E0FCCF90E080E0089578
:100380000F931F93009709F483C06115710509F459
:100390007FC0009113021091140220911502309138
:1003A00016020E3F1F4F2F4F3F4F09F062C04FEF15
:1003B0005FEFBA0140931302509314026093150249
:1003C000709316024091130250911402609115022D
:1003D00070911602DC011296ED91FC918081918161
:1003E000A281B3818093470390934803A09349036C
:1003F000B0934A0384819581A681B781809343039A
:1004000090934403A0934503B09346038085918560
:10041000A285B38580933F0390934003A09341034B
:10042000B093420384859585A685B78580933B0369
:1004300090933C03A0933D03B0933E031092370387
:10044000109238031092390310923A036CD588EB5E
:1004500097E09093D4028093D3025CD4009731F458
:1004600021E030E030934C0320934B031F910F9118
:1004700008950091130210911402209115023091F9
:100480001602DB010D931D932D933C9313979ACF86
:100490008FEF9FEFEBCF8F929F92AF92BF92CF9251
:1004A000DF92EF92FF921F93CF93DF934B015C019A
:1004B00010914E0382E090E090934C0380934B03A5
:1004C00081149104A104B10441F480914E0381117F
:1004D00004C080914D03C1E08111C0E0C12CD12C3A
:1004E000760180914E03811106C080914D038111E8
:1004F00002C0CC23D9F083E090E090934C0380932A
:100500004B03CC2379F1CCE9DFEF111102C00E943B
:100510001C0BCE01DF91CF911F91FF90EF90DF90E8
:10052000CF90BF90AF909F908F9008956AE070E059
:1005300080E090E00E94292580E1C80E87E2D81E65
:10054000E11CF11C8FEF88169806A806B80631F05A
:10055000C1E08C149D04AE04BF0408F0C0E080E04C
:100560000DD4BFCFD0E0C0E0D0CFCF92DF92EF92DA
:10057000FF921F93CF93DF938F3F910511F008F007
:1005800041C020914B0330914C032330310539F0A9
:1005900020914B0330914C032130310531F424E09C
:1005A00030E030934C0320934B036A017B01EC0154
:1005B000892BA9F011E0AE01C701B601AAD3AB01A6
:1005C000BC0190E080E01123F9F0CE01DF91CF91E2
:1005D0001F91FF90EF90DF90CF900C94310D8091A0
:1005E000D3029091D402892B29F30E94380D0297EF
:1005F00009F7E091D302F091D40290E080E01995E0
:10060000182FD9CF8FEF9FEFDF91CF911F91FF90E0
:10061000EF90DF90CF90089580E0B0C3CF93DF9349
:1006200086E090E090934C0380934B0300D4EC0160
:100630001092D4021092D30297D710924C031092CA
:100640004B03CE01DF91CF91089580914D03089522
:10065000809136030895609313027093140280937F
:1006600015029093160290E080E00895CF92DF92F9
:10067000EF92FF926B017C019F7720E030E040E831
:1006800059E50E941E2387FF2BC020E030E040E0A8
:100690005FE3C701B6010E94532487FD0EC020E02E
:1006A00030E040E05FE3C701B6010E94A722FF905F
:1006B000EF90DF90CF900C948B2320E030E040E06F
:1006C0005FEBC701B6010E945324181684F420E0A2
:1006D00030E0A901C701B6010E9457246B017C01DB
:1006E000C701B601FF90EF90DF90CF90089520E012
:1006F00030E040E05FE3C701B6010E94A622FF9010
:10070000EF90DF90CF900C940B234F925F926F92FB
:100710007F928F929F92AF92BF92CF92DF92EF9291
:10072000FF92C0900202D0900302E0900402F09089
:100730000502A701960160919F077091A007809123
:10074000A1079091A2070E941E23882341F0C09226
:100750009F07D092A007E092A107F092A2076EE354
:1007600070E080E090E088DD90939E0780939D0785
:1007700043E050E063EC77E06EDD61E02091C30779
:100780003091C40780910002909101022817390727
:1007900008F460E084E0EADD80911202813009F023
:1007A000B6C0609106027091070280910802909194
:1007B00009025CDF6B017C0120E030E040E853E49B
:1007C0000E941E236FEF87FF0EC020E030E0A901DA
:1007D000C701B6010E94532460E087FD04C0C70131
:1007E000B6010E9422238DE0C1DD60910E0270915E
:1007F0000F02809110029091110238DF6B017C0191
:1008000020E030E040E853E40E941E236FEF87FFB2
:100810000EC020E030E0A901C701B6010E945324B8
:1008200060E087FD04C0C701B6010E94222385E075
:100830009DDDC0900903D0900A03E0900B03F09077
:100840000C038FEFC81AD80AE80AF80AC092090305
:10085000D0920A03E0920B03F0920C03C114D1046E
:10086000E104F10499F480910D0390910E03A0919D
:100870000F03B09110030196A11DB11D80930D03CC
:1008800090930E03A0930F03B09310038090110375
:1008900090901203A0901303B090140360910D0385
:1008A00070910E0380910F03909110030E944E23CC
:1008B000A50194010E94572420E030E040E85FE465
:1008C0000E9457242B013C01C701B6010E944E2310
:1008D000A50194010E9457249B01AC01C301B20100
:1008E0000E94A72260930503709306038093070379
:1008F00090930803FF90EF90DF90CF90BF90AF9060
:100900009F908F907F906F905F904F90089560912F
:100910000A0270910B0280910C0290910D0249CF56
:10092000CF92DF92EF92FF921F93CF93DF93EFEE80
:10093000F2E08BE2DF011D928A95E9F780E090E01A
:10094000A0E8BFEB86A397A3A0A7B1A78DEC9CEC72
:10095000ACE4BEE382A393A3A4A3B5A38FEF96E375
:10096000A2E4BEED84839583A683B78380E198E7F4
:10097000ABE1BBE980879187A287B3878FEC90EBCF
:10098000ADE4B4E584879587A687B7878BE090EDC3
:10099000A9EFB5EE808B918BA28BB38BA3EEB2E067
:1009A000B383A283E5EDF2E01196FC93EE9381E32D
:1009B00092E091838083938382839583848397835A
:1009C000868391878087938782879587848783E052
:1009D00093E015969C938E93149783EF92E0139671
:1009E0009C938E93129785E093E017969C938E9339
:1009F00016971092C4071092C307EBE9F7E088E25C
:100A0000DF011D928A95E9F7C7E9D7E0188211E066
:100A10001BA78091020290910302A0910402B09161
:100A2000050288879987AA87BB87C12CD12C7601BC
:100A3000C394C982DA82EB82FC826EE370E080E0CC
:100A400090E05EDC9F838E831D831C8618A7CD8675
:100A5000DE86EF86F88A61E084E080DC198B1C8EEC
:100A60001AA7CD8EDE8EEF8EF8A261E08DE076DCE7
:100A700019A31C8A19A7CD8ADE8AEF8AF88E61E055
:100A800085E06CDC198FDF91CF911F91FF90EF9083
:100A9000DF90CF9008958091970781111DC081E06C
:100AA000809397078091980790919907A0919A0752
:100AB000B0919B070197A105B10571F480919C0746
:100AC000882351F06EE370E080E090E0D5DB9093F6
:100AD0009E0780939D0737DC8091A307811103C097
:100AE00081E08093A3078091B307811103C081E067
:100AF0008093B3078091AB07811103C081E080939D
:100B0000AB0708954F925F926F927F928F929F9260
:100B1000AF92BF92CF92DF92EF92FF920F931F930B
:100B2000F89440902603509027036090280370901B
:100B30002903C0901A03D0901B03E0901C03F0908F
:100B40001D03452B09F0A6C09B01AC0124193509F2
:100B50004609570929013A01009122031091230304
:100B6000209124033091250348015901840C951CE0
:100B7000A61CB71C80169106A206B306A0F400912D
:100B80001E0310911F0320912003309121030F5F5A
:100B90001F4F2F4F3F4F00931E0310931F032093AF
:100BA0002003309321038092220390922303A0928A
:100BB0002403B092250300911E0310911F0320917E
:100BC00020033091210380922A0390922B03A0925C
:100BD0002C03B0922D0300932E0310932F03209328
:100BE000300330933103609326037093270380937F
:100BF000280390932903A301920160E47DE083E040
:100C000090E00E943B2A6C0D7D1D8E1D9F1D609300
:100C10001A0370931B0380931C0390931D03009190
:100C200013021091140220911502309116020F3F09
:100C30001F4F2F4F3F4FF1F00091130210911402FC
:100C400020911502309116020E3F1F4F2F4F3F4F3C
:100C500089F0C0901302D0901402E0901502F09039
:100C6000160221E08C149D04AE04BF0408F420E0B9
:100C70002093360378941F910F91FF90EF90DF90AF
:100C8000CF90BF90AF909F908F907F906F905F902C
:100C90004F9008954B015C0184189508A608B70889
:100CA000A3019201261B370B480B590B64157505E0
:100CB00086059705E0F082169306A406B50640F473
:100CC00020E030E0A90181149104A104B104A1F451
:100CD00060E47DE083E090E00E943B2AA70196015A
:100CE000261B370B480B590BCA01B901C3CF82161B
:100CF0009306A406B50660F7A501940160E47DE0C3
:100D000083E090E00E943B2A6C0D7D1D8E1D9F1D8F
:100D1000B1CFF8CECF93DF9300D01F92CDB7DEB71F
:100D20001C821B821A8219821092320310923303A2
:100D30001092340310923503BE016F5F7F4FCE01D6
:100D400003960E94E12069817A818B819C810E94B7
:100D5000191A009761F4BE016F5F7F4FCE010396B1
:100D60000E94ED2069817A818B819C8126D50F902C
:100D70000F900F900F90DF91CF910895FF920F93F6
:100D80001F93CF93DF93082F60E070E0CB010E94A8
:100D90002925FF24F3940E940219EC01892B89F084
:100DA00010E0CE3F8FEFD80769F0002361F160E0DB
:100DB00070E0CB010E94292581E090E0892B59F356
:100DC00022C011E01DD5EC01892B21F0CE3F8FEF21
:100DD000D80759F711111EC011E0229609F410E04E
:100DE0000E94B218EC01892B21F0CE3F8FEFD8077B
:100DF000E1F6111111C011E0CE3F8FEFD80709F4D1
:100E000010E001110BC0CE01DF91CF911F910F9126
:100E1000FF90089511E0E4CF11E0F3CF60E070E0BF
:100E2000CB010E9429251F25812F90E0C7CFCF93AA
:100E3000DF931ED6D0E0C0E0892B71F06AE070E04D
:100E400080E090E00E94292581E098DF11D621966C
:100E5000C03D27E0D20781F710D60E946D1A10928C
:100E60004E0310924D0310924703109248031092C4
:100E7000490310924A0310924303109244031092C4
:100E800045031092460310923F03109240031092C4
:100E900041031092420310923B0310923C031092C4
:100EA0003D0310923E0310923703109238031092C4
:100EB000390310923A034EEF5FEF6FEF7FEF4093ED
:100EC000130250931402609315027093160210924D
:100ED0003603EAE2F3E028E0DF011D922A95E9F704
:100EE00010922603109227031092280310922903D0
:100EF00010922203109223031092240310922503D0
:100F000010921E0310921F031092200310922103CF
:100F100010921A0310921B0310921C0310921D03CF
:100F2000DF91CF91089510925A0310925B031092B3
:100F30005C0310925D0310925903809162039091BB
:100F400063039093580380935703109256031092B3
:100F500055031092510310925203109253031092B2
:100F6000540310925F0310925E0390E080E00895B6
:100F7000CF92DF92EF92FF920F931F93CF938C014A
:100F8000892B09F055C02091620330916303809151
:100F9000570390915803409162035091630350931B
:100FA0005803409357032817390781F010925603CE
:100FB0001092550310925103109252031092530352
:100FC0001092540310925F0310925E0380916203AB
:100FD00090916303019761F580915E0390915F03A7
:100FE000892B21F480911702811112C080915E0338
:100FF00090915F030197E1F4809151039091520326
:10100000A0915303B09154030197A105B10581F458
:1010100010925103109252031092530310925403F2
:101020001092170282E090E090935F0380935E033A
:101030008091620390916303019709F01CC1809134
:101040007803909179038017910709F014C180917A
:10105000740390917503A0917603B0917703009784
:1010600009F409C12091730321110DC0409174034B
:10107000509175036091760370917703452B462B51
:10108000472B09F4F8C020915E0330915F032230B2
:10109000310509F0F0C0209155032111ECC0FC018D
:1010A000C080D180E280F38080915903882309F4C5
:1010B000D3C08091650390916603892B09F4FDC02C
:1010C000209165033091660381E02230310509F0FB
:1010D00080E02091650330916603C1E02130310545
:1010E00049F02091650330916603C1E0223031055B
:1010F00009F0C0E0882309F456C020916F033091B5
:1011000070034091710350917203C701B6010E94B0
:10111000532487FD14C020916F03309170034091D8
:1011200071035091720360915A0370915B03809137
:101130005C0390915D030E941E2387FD22C02091D5
:101140006F03309170034091710350917203C70196
:10115000B6010E945324181634F520916F03309184
:101160007003409171035091720360915A03709122
:101170005B0380915C0390915D030E941E238111AB
:1011800012C08091670390916803A0916903B091A8
:101190006A03892B8A2B8B2B19F481E080935603E9
:1011A00081E080935503CC2309F456C020916F034E
:1011B000309170034091710350917203C701B601E1
:1011C0000E941E2387FF14C020916F03309170038B
:1011D000409171035091720360915A0370915B03C7
:1011E00080915C0390915D030E94532487FF22C08D
:1011F00020916F03309170034091710350917203FD
:10120000C701B6010E941E23811126C020916F03E1
:1012100030917003409171035091720360915A03B1
:1012200070915B0380915C0390915D030E94532455
:10123000181694F48091670390916803A091690354
:10124000B0916A03892B8A2B8B2B19F481E0809350
:10125000560381E08093550381E0909155039111ED
:1012600080E080935903C0925A03D0925B03E092CE
:101270005C03F0925D03012B09F067C180915E036E
:1012800090915F03892BD9F4109264031092550357
:1012900080911702882379F082E090E090935F03B9
:1012A00080935E03109217022091620330916303D2
:1012B00081E0232BE9F080E01BC081E00ACF10928F
:1012C000170280916403882349F01092560310920C
:1012D0005F0310925E0310926403EDCF809162036E
:1012E00090916303892BE1F080915503109255038F
:1012F00020915E0330915F032230310509F45EC016
:1013000088F42115310509F448C02130310509F46C
:10131000F3C010925603109255031092640338C024
:1013200081E0E6CF2330310509F4B1C02430310526
:1013300081F7409151035091520360915303709192
:101340005403411551056105710561F04150510982
:101350006109710940935103509352036093530301
:101360007093540340915103509152036091530381
:1013700070915403452B462B472BD9F420916003E1
:10138000309161032130310509F046C010925603B7
:1013900010925F0310925E030CC0809117028823A5
:1013A00041F082E090E090935F0380935E0310929F
:1013B000170210924F0380915603CEC08823C9F3C1
:1013C0008091670390916803A0916903B0916A03CB
:1013D000181619061A061B060CF07DC080916203D0
:1013E00090916303019709F076C080916703909113
:1013F0006803A0916903B0916A03809351039093AD
:101400005203A0935303B093540383E090E090936E
:101410005F0380935E03CDCF40916B0350916C03CB
:1014200060916D0370916E03452B462B472BA9F0FD
:101430001092560380916B0390916C03A0916D0301
:10144000B0916E038093510390935203A093530382
:10145000B093540381E090E0DACF882399F0809133
:10146000180290911902A0911A02B0911B02809368
:10147000510390935203A0935303B093540384E019
:1014800090E0C5CF1092560382E090E0C0CF8091EB
:10149000510390915203A0915303B09154030097CC
:1014A000A105B10559F00197A109B1098093510334
:1014B00090935203A0935303B0935403809151032C
:1014C00090915203A0915303B0915403892B8A2B1E
:1014D0008B2B09F06ECF8091180290911902A09188
:1014E0001A02B0911B02892B8A2B8B2B09F44ECF49
:1014F00081E080935603B3CF409151035091520342
:1015000060915303709154034115510561057105B4
:1015100061F04150510961097109409351035093A1
:1015200052036093530370935403409151035091BD
:1015300052036091530370915403452B462B472B64
:1015400009F037CF8111C7CF9FCF80914F038823F8
:1015500009F431CF80915003CF911F910F91FF90EB
:10156000EF90DF90CF90089510925A0310925B0392
:1015700010925C0310925D031092590310925F0366
:1015800010925E0310925803109257031092790341
:101590001092780310925603109255031092510343
:1015A000109252031092530310925403109250035E
:1015B00010924F03109274031092750310927603E9
:1015C000109277031092730310926F0310927003BE
:1015D000109271031092720388EE93E0A0E0B0E0E5
:1015E0008093180290931902A0931A02B0931B02E1
:1015F00010926B0310926C0310926D0310926E03A5
:1016000010926703109268031092690310926A03A4
:10161000109266031092650381E080931702109286
:10162000640310926303109262031092610310929C
:10163000600390E080E008958091620390916303DD
:10164000892B19F580911702882351F0809164034A
:10165000811106C081E08093500380934F03089569
:10166000209164033091170281E090E0332311F060
:1016700090E080E030E082239323892B21F01092C8
:10168000500381E0EACF10924F03089582E090E08A
:10169000FA01918380838FEF9FEF0895CF93DF93BB
:1016A000EA01009711F00E94841B1982188290E0D1
:1016B00080E0DF91CF910895DB01009719F48FEF5F
:1016C0008C9308952EEF2C93FC013F96EF30F1059B
:1016D00008F034C08827E059F44F8F4F0C946C2ADF
:1016E0009C0B9A0B980B960B940B900B920B8E0BFA
:1016F0008C0B8A0B870B830B7F0B850B9E0B80E378
:1017000011968C93089589E2FBCF82E2F9CF11966E
:101710001C92089583E2F4CF81E2F2CF81E1F0CF11
:1017200087E2EECF8AE2ECCF80E1EACF84E2E8CF35
:1017300088E2E6CF86E2E4CF81E3E2CF80E2E0CF49
:1017400080918603909187030895909387038093F7
:101750008603089580918503089590918503892BD0
:10176000809385030895982F909580918503892310
:101770008093850308958091840308958091820366
:101780009091830308956115710559F0FB0130E0D4
:1017900020E070E060E02417350719F0611571054D
:1017A00011F0CB010895A081B181A817B90709F400
:1017B000BF012F5F3F4F3696EECF80918803811196
:1017C0001CC041D247D290937B0380937A030E943E
:1017D000F5140E94071590937F0380937E030E9467
:1017E0001A180E94211890937D0380937C0381E056
:1017F0008093880390E080E0089584EF9FEF089540
:101800008F929F92AF92BF92CF92DF92EF92FF9210
:101810000F931F93CF93DF9300D000D000D01F927F
:10182000CDB7DEB71A86198618861F821E821D82E2
:101830001C821B821A8219828091880307EF1FEF96
:10184000882309F48BC08E010D5F1F4F9E012B5F13
:101850003F4FAE01495F5F4FBE01675F7F4F90E032
:1018600080E00E949E198C01009721F00596029756
:1018700008F0C7C089859A85009709F4EFC0ED800C
:10188000FE802B813C812E0D3F1D4F8158854217D4
:10189000530708F4E3C0E80EF91ED7014C912091DC
:1018A000860330918703232B09F494C0413F08F04D
:1018B00069C08CE1840F8D3008F483C08DE2840F01
:1018C000803108F481C088E3840F8B3008F47FC036
:1018D0009CE5C92E9BE0D92EE6E4FBE06D817E817C
:1018E000AE014F5F5F4F89859A8519955C01C114E0
:1018F000D104A1F189809A808114910479F18B81BE
:101900009C818815990508F484C010E000E04B81A3
:101910005C8170E060E0C7010E94962A0115110504
:10192000E9F449815A8169857A858D819E81680FA4
:10193000791FC501F6011995E980FA800D811E8194
:101940002F81388549855A856FEF7FEF81E090E0E0
:101950000E9439198C01892B09F053C0C8012A96BD
:101960000FB6F894DEBF0FBECDBFDF91CF911F91B0
:101970000F91FF90EF90DF90CF90BF90AF909F902E
:101980008F90089530E020E0220F331FF901E658D0
:10199000FC4F0190F081E02D309709F499CF842F0E
:1019A00090E01995009709F493CFDC011296ED9120
:1019B000FC9113971496CD90DC90309709F08ECF60
:1019C0001EC021E030E0E0CF22E030E0DDCF23E0B8
:1019D00030E0DACFD12CC12CEEE4FBE04F3F09F030
:1019E0007DCFE0917A03F0917B03309719F404EFF7
:1019F0001FEF0CC08FEF90E019950097B1F604EF40
:101A00001FEF89859A85009709F4A8CF0E94841B4F
:101A1000A5CF0E94681A8C0189859A850E94841B33
:101A200070E060E0C4010E94011A98878F830E94D1
:101A300036199E838D836F8178856115710559F004
:101A4000C8010E941A1D9A87898706EF1FEF892B0C
:101A500009F05BCF5CCF08EF1FEF59CF08EF1FEF06
:101A6000D0CF209188032111D7C787EF9FEF08952A
:101A7000809186039091870308950E9426180E9402
:101A80008017EDD0EAE7F3E088E0DF011D928A9548
:101A9000E9F71092880390E080E0089586E090E0F6
:101AA000FA019183808390E080E0089547E050E060
:101AB00064E372E068CEDF92EF92FF920F931F9380
:101AC000CF93DF938A01EC01C60FD71FE0908C0300
:101AD000F0908D03D9800E94501AD816190678F01C
:101AE00082E090E0F801918380838EEF9FEFDF9199
:101AF000CF911F910F91FF90EF90DF900895EF2805
:101B000041F482E090E0F8019183808384EF9FEFBD
:101B1000EECF898180938B0390E00196F801918349
:101B2000808390E080E0E3CFCF93DF93EA010E94CF
:101B30009416882321F00E945D1A0E94951682E077
:101B400090E0998388838BEF9FEFDF91CF91089589
:101B5000CF93DF93EB0186E0FB0111928A95E9F7C1
:101B60008FEF8883F7DD898306DE8A8307DE9D8316
:101B70008C83DF91CF910895CF93DF93EA010E9488
:101B80009716811109C082E090E09983888385EFE0
:101B90009FEFDF91CF91089590E080E0D6DD81E066
:101BA00090E09983888390E080E0F3CF0F931F93B8
:101BB000CF93DF93EA018C01060F171F0E9497163F
:101BC00081110BC082E090E09983888385EF9FEFBD
:101BD000DF91CF911F910F910895F801818182309B
:101BE00038F082E090E0998388838EEF9FEFF0CF0A
:101BF00081E090E0AADD88E090E09983888390E01E
:101C000080E0E6CFCF93DF930097D1F4EB01FB01A7
:101C1000329686E0DF011D928A95E9F78FEF88837F
:101C200085E089831A820E94501A8B830E944F1A82
:101C30009D838C8381E08E838F83DF91CF91089584
:101C4000DF91CF9139CD86E59DE090938A03809313
:101C5000890308958091890390918A0308951092D1
:101C60008A0310928903089580918C0390918D03CB
:101C70000895411105C0611571058105910561F057
:101C800060938C0370938D0380938E0390938F03E6
:101C90004093900381E0089580E00895FF920F93B0
:101CA0001F93CF93DF938A01EC01C60FD71FF980F2
:101CB0000E94501AF816190668F082E090E0F801C8
:101CC000918380838EEF9FEFDF91CF911F910F91D2
:101CD000FF9008956C817D818E819F814B81C9DF4A
:101CE000811108C082E090E0F8019183808384EF45
:101CF0009FEFEACF898180938B0390E00196F801F2
:101D00009183808390E080E0DFCFCF93DF93EA017F
:101D1000FC01E60FF71F64817581868197814381FD
:101D2000A8DF811109C082E090E09983888384EF65
:101D30009FEFDF91CF91089581E090E099838883B0
:101D400090E080E0F6CFECE8F3E0408151816281E1
:101D50007381480F511D611D711D40835183628342
:101D600073830895CF93C0918B034C2F50E0609103
:101D70008C0370918D0301960E948D2A8C2FE3DFD6
:101D800010928B03CF910895009799F480918C0362
:101D900090918D032FEFFB012083892B59F0209127
:101DA0008B0330E02F5F3F4F2417350719F4CB0129
:101DB000D9CF82CC0895009799F480918C039091AB
:101DC0008D032FEFFB012083892B59F020918B038A
:101DD00030E02F5F3F4F2417350719F4CB01C2CFF6
:101DE0006BCC08952DE0AC01249FC001259F900D80
:101DF0001124E0919503F0919603E80FF91F2381D8
:101E000034812250310981E02230310508F080E030
:101E100008950F931F93CF93DF9300919703109131
:101E20009803D0E0C0E080E00C171D0749F491E072
:101E3000811190E0892FDF91CF911F910F9108952B
:101E40008111F5CFCE01CEDF2196EECFA091950383
:101E5000B0919603109729F1209197033091980340
:101E600082179307F0F45DE0589F9001599F300D61
:101E70001124A20FB31FED91FC911197309789F0B7
:101E800012968C91681768F485E0689FE00DF11D4B
:101E9000112480819181892B21F081E09281491761
:101EA00008F080E00895EF92FF920F931F93CF9375
:101EB000DF93EA01FC01E60FF71F02811381E48042
:101EC000F5804F2D6E2DC801C1DF81110DC082E05C
:101ED00090E0998388838EEF9FEFDF91CF911F91E0
:101EE0000F91FF90EF900895C8017CDF882339F0AF
:101EF00082E090E09983888388EF9FEFEECF109384
:101F0000230200932202E0922402F092250281E053
:101F100090E09983888390E080E0DFCFCF92DF92DA
:101F2000EF92FF920F931F93CF93DF937A01EC010F
:101F3000C60FD71FC0902202D09023020091240226
:101F400010912502412F602FC60180DF811110C042
:101F500082E090E0F701918380838AEF9FEFDF9129
:101F6000CF911F910F91FF90EF90DF90CF90089548
:101F7000C60138DF882341F082E090E0F7019183C9
:101F8000808388EF9FEFEBCF4C815D816E817F81F5
:101F90009A8189818F3F41F082E090E0F70191833F
:101FA00080838EEF9FEFDBCFEDE0EC9D9001ED9D08
:101FB000300D1124E0919503F0919603E20FF31F89
:101FC0000190F081E02D25E0029FE00DF11D11242C
:101FD0000190F081E02D27E0129FE00DF11D11240A
:101FE000808391838B81828343835483658376834B
:101FF0001F5F1093250281E090E0F70191838083B9
:1020000090E080E0ACCFEF92FF920F931F93CF93BD
:10201000DF937A018C01060F171FC0919503D091B1
:102020009603209781F021E030E0F80182819381CE
:1020300040919703509198038417950710F030E072
:1020400020E0232B71F482E090E0F70191838083FC
:102050008EEF9FEFDF91CF911F910F91FF90EF9047
:1020600008954DE0489F9001499F300D1124C20F03
:10207000D31FB8DE882341F082E090E0F70191831E
:10208000808388EF9FEFE6CFF801248135812038E7
:102090003105C8F687818111D6CF4181842F90E028
:1020A0008F7E009741F082E090E0F701918380837A
:1020B00086EF9FEFCFCF4F833E832D8326812887E6
:1020C0001986223010F421E0288721E030E0F70162
:1020D00031832083BFCF88E090E0FA019183808331
:1020E00090E080E00895FB018FEF808381E18183A0
:1020F0008FEF9FEF9383828380E890E095838483C2
:10210000168217820895FB018FEF808391E09183FF
:1021100082839383848384E3858381E090E0978343
:10212000868308954BE050E06EE572E02CCB8F92F1
:102130009F92BF92CF92DF92EF92FF920F931F93E5
:10214000CF93DF93EA01FC01E60FF71F82819381B1
:102150000481B580E0919503F0919603309791F456
:1021600082E090E0998388838CEF9FEFDF91CF919D
:102170001F910F91FF90EF90DF90CF90BF909F90B5
:102180008F900895209197033091980382179307B9
:1021900038F082E090E0998388838EEF9FEFE6CF5E
:1021A0002DE0289F6001299FD00C1124EC0DFD1D0E
:1021B000E080F180E114F10499F28281081748F778
:1021C00085E0089F80011124E00EF11EF701808157
:1021D0009181892B29F6BB20E1F2F7E0BF9E4001F7
:1021E0001124C4010E94361BF70191838083E09182
:1021F0009503F0919603EC0DFD1D0190F081E02D0B
:10220000E00FF11F80819181009739F482E090E026
:10221000998388838DEF9FEFA9CFA40170E060E0E0
:102220000E94962A8091950390919603C80ED91E1C
:10223000F60180819181080F191FF801B28281E0B7
:1022400090E09983888390E080E090CFAF92BF9236
:10225000CF92DF92FF920F931F93CF93DF93EA0108
:10226000FC01E60FF71F82819381F48000919503B2
:10227000109196030115110581F482E090E0998395
:1022800088838CEF9FEFDF91CF911F910F91FF908B
:10229000DF90CF90BF90AF90089520919703309139
:1022A00098038217930738F082E090E0998388833F
:1022B0008EEF9FEFE8CF2FEF2F0D2C3FA8F72DE0EB
:1022C000289F6001299FD00C11240C0D1D1DF801C1
:1022D00080819181892B89F6F5E0FF9E50011124C0
:1022E000C5010E94361BF80191838083E09195031C
:1022F000F0919603EC0DFD1D80819181009739F4DA
:1023000082E090E0998388838DEF9FEFBCCFA50199
:1023100070E060E00E94962AE0919503F0919603A8
:10232000EC0DFD1DF28281E090E09983888390E0BE
:1023300080E0A9CFCF92DF92EF92FF920F931F938D
:10234000CF93DF93860F971FFC0102811381809149
:10235000950390919603892B81F082E090E0FA0139
:10236000918380838CEF9FEFDF91CF911F910F912D
:10237000FF90EF90DF90CF900895C801B0E0A0E00B
:102380000197A109B1098F3F9F4FA105B10540F009
:1023900082E090E0FA01918380838EEF9FEFE4CF9B
:1023A0007A018DE0809F6001819FD00C1124C601CD
:1023B0000E94361BEC01009741F482E090E0F701A7
:1023C000918380838DEF9FEFCFCFA60170E060E017
:1023D0000E94962AD0939603C09395031093980376
:1023E0000093970390E080E02FEF3FEF8017910775
:1023F00041F481E090E0F7019183808390E080E0F8
:10240000B3CF3C872B8701962D96F0CFCF92DF92EA
:10241000EF92FF920F931F93CF93DF93EC01D12C98
:10242000C12C10E000E0F12CE12C8A81801711060C
:1024300009F0BCF4AE01455F5F4F63E070E0C70197
:102440000E94B01B009721F02FEF3FEF3C872B87B6
:10245000DF91CF911F910F91FF90EF90DF90CF9080
:102460000895E881F981EC0DFD1D23813481C901B6
:1024700001960115110519F44F8144FD049661E0A0
:1024800070E0BFD7E816F90608F47C010F5F1F4F14
:1024900085E0C80ED11CC9CFF894209193033091E8
:1024A000940381E02115310509F080E0232B09F028
:1024B000789408954F925F926F927F928F929F923D
:1024C000AF92BF92CF92DF92EF92FF920F931F9342
:1024D000CF93DF933C01660E771EF30182819381D7
:1024E0004C01B12CA12CC0919503D091960320975B
:1024F00069F021E030E060919703709198038617AE
:10250000970710F030E020E0232BC1F482E090E048
:10251000FA01918380838EEF9FEFDF91CF911F911E
:102520000F91FF90EF90DF90CF90BF90AF909F9072
:102530008F907F906F905F904F90089580922602C9
:1025400090922702A0922802B09229026DE0689F23
:102550009001699F300D1124C20FD31FF3018181B7
:10256000833040F082E090E0FA019183808386EF2F
:102570009FEFD3CF2A012B813C81232BF1F42881BB
:1025800039819F8191FF2EC0232B09F464C02091D3
:102590009A039A81422F490F5527551FBA0141E0EE
:1025A00050E06138710514F050E040E0452B09F42B
:1025B00052C02A87920F90939A038150823008F478
:1025C00076C06ADF882309F4C5C0F30181818130B8
:1025D00009F480C008F470C0823009F4B3C090E000
:1025E00080E08EC0232BB9F1209199039A81E22FCC
:1025F000E90FFF27FF1F41E050E0ED3FF10514F028
:1026000050E040E0452B39F12A87920F90939903CF
:10261000D4CFA081B181A20FB31F11966C91060F88
:10262000111D0196295F3F4F8417950794F3C1143C
:10263000D104C9F48F8184FF16C031D721E0A801ED
:102640004B5F5F4F8417950708F420E0A7014B5FAD
:102650005F4F21110EC082E090E0F20191838083F0
:1026600087EF9FEF5ACF1BD721E0A8014F5F5F4F45
:10267000E9CF88819981E80EF91EF701148303835D
:10268000FFEFCF1ADF0A7A018A818C151D0409F049
:102690000CF497CFE881F981EE0DFF1D428150E0E7
:1026A00030E020E010E000E090E080E0BDCFF12CD1
:1026B000E12CD12CC12CE8CF81E090E09C838B836E
:1026C000A8DB882309F48BCF81E090E03ED880E43A
:1026D0004AD885CF8B859C85019651F083E090E0A8
:1026E0009C838B8382E090E030D880E436D877CF2B
:1026F00089288A288B2879F4CE0188DE009771F327
:10270000789422E030E0F20131832083892BF9F0C4
:102710008DEF9FEF02CF2D813E8180911C02909121
:102720001D0228173907D1F660912002709121020D
:10273000AE01455F5F4F80911E0290911F020E9483
:10274000D91CDCCF82E090E09C838B8348CF90E063
:1027500080E0E3CE82E090E0F2019183808385EF18
:102760009FEFDBCE8F929F92AF92BF92CF92DF927C
:10277000EF92FF920F931F93CF93DF93EA018C01A7
:10278000060F171FF8018181833098F082E090E0F6
:102790009983888386EF9FEFDF91CF911F910F91EF
:1027A000FF90EF90DF90CF90BF90AF909F908F9071
:1027B00008958091950390919603892B61F081E0B3
:1027C00090E02091970330919803232B11F490E02F
:1027D00080E0892B39F482E090E0998388838EEF42
:1027E0009FEFDACF59DE882309F4D5C0F801818143
:1027F000813009F48BC0E8F0823099F4209197037E
:1028000030919803E0919503F091960390E080E079
:1028100041E050E02817390709F0B3C0FADA811116
:1028200017C0789481E090E09983888390E080E0FD
:10283000B3CF2091970330919803E0919503F091E5
:10284000960390E080E041E050E02817390741F41A
:1028500081E090E00E94A50B80E40E94B30BE1CFE1
:1028600063817481672B11F05483438301963D96F5
:10287000ECCFE0919503F0919603E00FF11F2381D7
:1028800034812230310561F4238534852F3F3F4F59
:1028900039F4C114D104E104F10409F5CF01B6DD26
:1028A000EFEFCE1ADE0AEE0AFE0A035F1F4F4091D9
:1028B00097035091980370E060E0C416D506E606D1
:1028C000F70664F50097A9F27894892B09F4AACF4A
:1028D00082E090E0998388838DEF9FEF5DCF458103
:1028E000568120911C0230911D0242175307C1F6F8
:1028F000AF01455F5F4F609120027091210280918E
:102900001E0290911F020E94D91CCACF10E000E065
:1029100090E080E0C12CD12C7601C9CF0097A1F6C0
:1029200010E000E0812C912C540183E0E82EF12C82
:102930001AC0E0919503F0919603E00FF11F838197
:102940009481029749F4F482E38282E090E00E944D
:10295000A50B80E40E94AD0BFFEF8F1A9F0AAF0A10
:10296000BF0A035F1F4F8091970390919803B0E0D7
:10297000A0E088169906AA06BB06DCF290E080E08B
:10298000A3CF638174816230710511F45483438352
:1029900001963D963FCF82E090E09983888385EF52
:1029A0009FEFFACE0097B9F48FEFFB01808320915F
:1029B0002602309127024DE0429FC001439F900DB7
:1029C0001124E0919503F0919603E80FF91F828599
:1029D000FB01818308950C945C0B88E090E0FA0180
:1029E0009183808390E080E0089510929403109288
:1029F0009303E5E9F3E086E0DF011D928A95E9F7AC
:102A000082E990E1909392038093910308958091DD
:102A100091039091920308952F923F924F925F926B
:102A20006F927F928F929F92AF92BF92CF92DF92DE
:102A3000EF92FF920F931F93CF93DF93CDB7DEB743
:102A400062970FB6F894DEBF0FBECDBFF894209109
:102A50009303309194032F5F3F4F3093940320935F
:102A60009303789420919503309196033B832A83B6
:102A7000232B09F456C12091970330919803232BFF
:102A800009F44FC14D875E876F87788B9C878B8752
:102A90008A819B819A8B898BD12CC12C198210E061
:102AA00000E08091970390919803C816D90618F416
:102AB0003981332329F1F894809193039091940301
:102AC000019790939403809393037894C80162963E
:102AD0000FB6F894DEBF0FBECDBFDF91CF911F912F
:102AE0000F91FF90EF90DF90CF90BF90AF909F90AD
:102AF0008F907F906F905F904F903F902F900895B0
:102B0000B60190E080E029D38887A989BA89179611
:102B10008C91179781FD8DC013968D919C91149780
:102B2000039709F086C01596ED91FC91FF83EE8323
:102B30002B853C85E217F30709F07BC0712C612CD3
:102B4000512C412C63C092D39A87898710E041149D
:102B5000510431F4A989BA8917961C911295117004
:102B6000A989BA89ED91FC91E60DF71D2380348087
:102B7000111169C0BFEF2B1A3B0A61E070E0C1017F
:102B800040D45C01A989BA891B968D919C918F3F95
:102B9000980709F45CC0B5014DD74C01009709F4C2
:102BA000BBC0E985FA85E80FF91FA989BA891A9689
:102BB0008C91840D808311114DC08F010F5F1F4FC9
:102BC00080911C0290911D02AE81BF81A817B907A8
:102BD00009F09DC081E090E0B885BB2311F090E042
:102BE00080E0710109851A859501A401B6019195CE
:102BF000819591093ED38C01892B11F0C40184D5B4
:102C00008FEF481A580A95E0690E711CA989BA8994
:102C100012968C918415150429F024F0B981BB23F8
:102C200009F491CFE885EE2321F0B60190E080E031
:102C300096D2FFEFCF1ADF0A29893A89235F3F4FE7
:102C40003A8B298B2ECFE5E02E0E311C96CFC50195
:102C50000DD5A3CF8D859E85AF85B889818392835D
:102C6000A383B4838F010B5F1F4FAACFE080F18055
:102C7000EC81FD81EE0EFF1ED70113966D917C91C4
:102C800014978C918F3FE1F1E1E0F0E002C0EE0F8C
:102C9000FF1F8A95E2F7CF01092E000CAA0BBB0B90
:102CA000FB01408151816281738184239523A62396
:102CB000B72321E0892B8A2B8B2B09F420E0D80144
:102CC0002C93D70111968C91080F111DEA81FB817D
:102CD0003196FB83EA832C813D81295F3F4F3D8301
:102CE0002C83A989BA89ED91FC91E60DF71D8281AB
:102CF0002A813B818217130611F00CF0B7CF6ACFFF
:102D0000F701418150E0C8010E948D2ADACF1D826F
:102D10001C821B821A82E5CF31E0398306EF1FEF58
:102D20006FCF10E000E0C7CEB7CB789408952F9214
:102D30003F924F925F926F927F929F92AF92BF921B
:102D4000CF92DF92EF92FF920F931F93CF93DF9377
:102D500000D000D0CDB7DEB7009195031091960357
:102D6000992493940115110509F43EC0A09097038E
:102D7000B090980391DB982E8823B1F110929603BE
:102D80001092950310929803109297031092990352
:102D900010929A038FEF9FEFDC01809326029093AD
:102DA0002702A0932802B093290278947AD31E8335
:102DB0000D83C12CD12C7601C501B0E0A0E0898340
:102DC0009A83AB83BC8322242A94322C89819A81F2
:102DD000AB81BC81C816D906EA06FB06F4F0C8012F
:102DE00093D480E40E94B30B892D26960FB6F894F5
:102DF000DEBF0FBECDBFDF91CF911F910F91FF902E
:102E0000EF90DF90CF90BF90AF909F907F906F90AA
:102E10005F904F903F902F900895C114D104E1042A
:102E2000F10409F5D8011B968D919C918F3F98076D
:102E300009F040D5F80134862386ED81FE8180813A
:102E40009181B12CA12C412C512C3201892B69F597
:102E5000BFEFCB1ADB0AEB0AFB0AED81FE813D9640
:102E6000FE83ED83B3CFAD81BE8115962D913C914C
:102E7000169780911C0290911D0228173907E9F6D8
:102E80001B968D919C91C4D5D8CF8A0D9B1DDC01DA
:102E90008D919C91009709F037D4BFEF4B1A5B0AD4
:102EA0006B0A7B0AE5E0AE0EB11CAD81BE818D914F
:102EB0009C91119712964C9150E070E060E044169E
:102EC0005506660677060CF31FD4C2CFCF93DF9367
:102ED000EA012DDF811109C082E090E099838883A7
:102EE00085EF9FEFDF91CF91089581E090E00E9400
:102EF000A50B81E090E09983888390E080E0F2CF99
:102F000016DF1092920310929103089542E050E070
:102F100060EA72E00C94C30BFF920F931F93CF9360
:102F2000DF938A01EC01C60FD71FF980B9D2089749
:102F3000F816190671F068F082E090E0F8019183CC
:102F400080838EEF9FEFDF91CF911F910F91FF90C4
:102F500008956C817D818E819F814B810E94390E05
:102F6000811108C082E090E0F8019183808384EFB2
:102F70009FEFE9CFF9800E94340E4F2D50E0BE0143
:102F8000685F7F4F0E948D2A89810E94A30E81E095
:102F900090E0F8019183808390E080E0D4CFDF92CD
:102FA000EF92FF920F931F93CF93DF938A01EC016F
:102FB000C60FD71F0E94340E7C01D98071D2DD204C
:102FC00059F0029721E030E0D816190619F010F0F8
:102FD00030E020E0232B79F482E090E0F801918347
:102FE00080838EEF9FEFDF91CF911F910F91FF9024
:102FF000EF90DF900895EF2841F482E090E0F8012F
:103000009183808384EF9FEFEECFF9800E94340E8E
:103010004F2D50E0BE016E5F7F4F0E948D2A898147
:103020000E94A30E81E090E0F8019183808390E0FC
:1030300080E0D9CF86E897E190939C0380939B032F
:10304000089580919B0390919C0308950895FC013D
:1030500011821082938382830895DB011D921C925A
:10306000DC011296ED91FC911397718360831396A6
:103070007C936E9312970895FC0180819181DB010E
:103080008D939C93A081B181109741F08D919C917B
:1030900091838083892B11F4F383E2830895FC01EB
:1030A00080819181DB018D939C93892B11F4738333
:1030B0006283718360830895FC011182108293837F
:1030C00082830895CF93DF931F921F92CDB7DEB70F
:1030D0001A821982F894BE016F5F7F4F82EA93E0F3
:1030E000CBDF89819A81009709F00ED389819A817B
:1030F000892B89F7BE016F5F7F4F86EA93E0BCDFC3
:1031000089819A81009709F0FFD289819A81892B60
:1031100089F778940F900F90DF91CF910895CF9316
:10312000DF931F921F92CDB7DEB71A821982F894EF
:10313000BE016F5F7F4F8EE993E09EDF89819A81A8
:10314000009709F0E1D289819A81892B89F77894D7
:103150000F900F90DF91CF91089581E0089590E056
:1031600080E00895EF92FF920F931F93CF93DF9328
:103170001F921F92CDB7DEB71A82198280919D03EC
:1031800007EF1FEF8823A1F1F894BE016F5F7F4F17
:1031900086EA93E071DF789489819A81EE24E39442
:1031A000F12C892B51F4F894BE016F5F7F4F82EAB6
:1031B00093E062DF7894F12CE12C89819A810EEF03
:1031C0001FEF0097A9F0FC014281538164E070E099
:1031D0002CD68C01892B61F0F89469817A81C70122
:1031E000880F991F880F991F8E559C4F58DF789430
:1031F000C8010F900F90DF91CF911F910F91FF9019
:10320000EF9008950F931F93CF93DF9300D01F92F9
:10321000CDB7DEB71C821B821A82198280919D0372
:1032200007EF1FEF8823C1F0AE014D5F5F4F64E0F1
:1032300070E0CE0101966CD68C01892B69F4E9818E
:10324000FA818B819C8193838283F89469817A814E
:103250008EE993E002DF7894C8010F900F900F90F1
:103260000F90DF91CF911F910F91089571D7049620
:1032700008958F929F92AF92BF92CF92DF92EF927A
:10328000FF920F931F93CF93DF931F921F92CDB79F
:10329000DEB71A821982BC016F5F7F4F6330710500
:1032A00098F0AA24AA94BA2CC5010F900F90DF9130
:1032B000CF911F910F91FF90EF90DF90CF90BF9033
:1032C000AF909F908F9008954115510551F348019B
:1032D00059018A016C01CADF8815990511F7E114BB
:1032E000F104F9F28E0D9F1DA816B906D0F2809157
:1032F0009D038823F1F0F894B5016450710997019A
:10330000AE014F5F5F4FC801049697D65C01892BD1
:1033100071F489819A81F80193838283C601880FB1
:10332000991F880F991FB8018E559C4F96DE78948F
:10333000BBCF87EFA82EBB24BA94B6CFAF92BF9273
:10334000CF92DF92EF92FF920F931F93CF93DF9371
:103350001F921F92CDB7DEB71A821982892B09F00E
:1033600047C06115710509F443C04115510509F4C1
:103370003FC02115310509F43BC001151105C1F10C
:1033800080919D038823B9F179016A015B01F8946A
:10339000BE016F5F7F4F8EE993E06EDE7894898186
:1033A0009A81009759F1DC0112966D917C91A801E8
:1033B00004965CD68C01E981FA81D501ED93FC93EA
:1033C000828193810496F601918380834FDFD70138
:1033D0008D939C93C8010F900F90DF91CF911F9117
:1033E0000F91FF90EF90DF90CF90BF90AF90089536
:1033F0000FEF1FEFEFCF07EF1FEFECCF0EEF1FEF39
:10340000E9CFCF93DF93EC01672B71F4AAD68C1729
:103410009D0760F09DD62496C80FD91F9CD68C0FAF
:103420009D1FDF91CF91089599D6F1CF90E080E074
:10343000F8CF0F931F93CF93DF9320919D0321111A
:103440002BC08B01EC0182EA93E001DE86EA93E077
:10345000FEDD8EE993E0FBDD86D00097C1F481D6D6
:1034600070E060E0CEDF4AE252E062E070E078D1E6
:10347000009769F480912A0290912B0284D6B801BA
:10348000CE01B9D4009719F421E020939D03DF9178
:10349000CF911F910F91089584EF9FEFF8CF5EC6F3
:1034A00060C6CF93DF9360D6EC01892B11F40ADE5E
:1034B00036DECE01DF91CF910895CF93DF9354D6BE
:1034C000EC01892B09F4FEDDCE01DF91CF91089547
:1034D00080912A0290912B020895CF93DF938091DF
:1034E0009D03D0E0C0E08823D1F052D6EC01892BB7
:1034F000B1F4E8DD14DE80912A0290912B02DAD13A
:10350000E9D2EC01892B59F482EA93E0D5DD86EA11
:1035100093E0D2DD8EE993E0CFDD10929D03CE01E2
:10352000DF91CF910895CF93DF930097A1F4DF91BE
:10353000CF910895EC011A821982A883309711F077
:10354000928381832F5F3F4FFC01860F971F4217A5
:10355000530781F7ECCF30E020E0F0E0E0E0AFEFA0
:103560006F5F7F4FF4CFCF92DF92EF92FF920F9376
:103570001F93CF93DF930DE914E00C7F8CEAE82EC4
:1035800082E0F82E92EBC92E92E0D92ECCEDD4E059
:10359000D7014D915D917D01F601619171916F01AE
:1035A000198308835D834C835B834A837F836E83A7
:1035B0009B012F5F3F4F249FC001259F900D349F9B
:1035C000900D112499878887C801ADDF888599857A
:1035D000080F191F2A96F2EBEF16F2E0FF06C1F66C
:1035E000ECEAF3E08EEEDF011D928A95E9F7109286
:1035F000AB031092AA031092FB041092FA041092EB
:10360000FF041092FE041092FD041092FC0410922C
:103610000105109200051092030510920205109208
:1036200005051092040510920905109208051092E4
:1036300007051092060510920B0510920A051092CC
:103640000D0510920C051092D9041092D804109216
:10365000DB041092DA0490E080E0DF91CF911F91BB
:103660000F91FF90EF90DF90CF900895009799F120
:10367000F8948930910550F48091DE049091DF0434
:10368000892B39F020E090E080E018C0813191056D
:1036900050F48091E8049091E904892B31F021E005
:1036A00081E090E00BC08197A8F48091F2049091A2
:1036B000F304892B79F022E082E090E0EAE0E89FD1
:1036C000D001E99FB00D1124A452BB4F8D919C9164
:1036D000009721F4789490E080E00895E29FF00153
:1036E0001124E452FB4FDC0111964D915C91518302
:1036F0004083428153814150510953834283FC01ED
:103700002193CF0178940895009749F1DC018E91BF
:10371000853041F4E091DA04F091DB043097F9F060
:10372000CD0119948530D8F4282F30E0F8948FEF2C
:103730008C938AE0829FF001839FF00D1124E45264
:10374000FB4F8081918112969C938E931197B18348
:10375000A0838281938101969383828378940895D4
:10376000CF92DF92EF92FF920F931F93CF93DF934D
:103770009C018FEA93E08C7F4115510509F497C0B5
:103780002115310509F493C06115710509F48FC045
:103790007A01AB01B9016D5F7F4F6C7F9B012F5F99
:1037A0003F4F249F8001259F100D349F100D112441
:1037B000F8942091FA043091FB04232B59F42091C2
:1037C0000205309103052115310569F120173107F4
:1037D00008F056C02091040530910505232B91F483
:1037E0002091020530910305820F931F20910C0553
:1037F00030910D052115310509F43FC0201731071F
:1038000008F052C07894CFEFDFEF86EF9FEFF7011B
:10381000D183C083DF91CF911F910F91FF90EF90E3
:10382000DF90CF900895C3E0D0E0C090AA03D0907D
:10383000AB032BEE30E02C193D092017310710F3B4
:103840002AE02C9FF0012D9FF00D1124E452FB4F34
:103850009183808355834483538342837783668334
:103860001187008760DE0C0D1D1D1093AB030093C4
:10387000AA03789490E080E0CACFC4E0D0E0D5CF2E
:10388000C3E0D0E02AE02C9FF0012D9FF00D112421
:10389000E452FB4F91838083558344835383428357
:1038A0007783668340DEE5CFC4E0D0E0EBCF8FEFD7
:1038B0009FEFB0CFFF920F931F93CF93DF939C01A5
:1038C000235031092230310508F070C0EC01F89422
:1038D00084E09AE09C9FD0019D9FB00D1124AC51D3
:1038E000BB4F082F10E0909FF001919FF00D112425
:1038F000E452FB4F20813181C017D10714F1FF241E
:10390000F394232B41F52AE0209FF001219FF00D35
:103910001124E452FB4F8091AA039091AB034085A0
:103920005185841B950B9093AB038093AA032C9F26
:10393000F0012D9FF00D1124E452FB4F11861086EB
:103940001CC0232B39F42D913C911197232BA9F402
:103950008150C7CFF12C8AE08C9FF0018D9FF00D34
:103960001124E452FB4F4085518570E060E0808176
:1039700091810E94962AF110C6CF8AE08C9FF001B7
:103980008D9FF00D1124E452FB4F1182108215829D
:1039900014821382128217821682789490E080E05B
:1039A000DF91CF911F910F91FF9008958FEF9FEFBF
:1039B000F7CF4115510549F1009739F161157105AE
:1039C00021F1F8942091D8043091D904232BB9F433
:1039D0002091DA043091DB04232B89F49093D904ED
:1039E0008093D8047093DB046093DA04789425E024
:1039F00030E090E080E0FA013183208308957894EC
:103A00002FEF3FEF86EF9FEFF6CF8FEF9FEF0895F9
:103A1000059769F4F8941092D9041092D804109282
:103A2000DB041092DA04789490E080E008958FEF40
:103A30009FEF08956115710519F4F0E0E0E011C001
:103A40008530910581F4E091D804F091D904309744
:103A5000A1F3CB0101961995009779F3FC0185E05C
:103A60008193CF0108959C01235031092230310503
:103A700020F72AE0289FD001299FB00D1124A452DD
:103A8000BB4F2D913C911197232BB9F216962D9196
:103A90003C9117972617370780F2F89412962D91CC
:103AA0003C9113972115310529F0ED91FC91119767
:103AB000309711F47894C1CF4181528111965C9373
:103AC0004E932150310913963C932E931297819374
:103AD0007894C7CFEAE9F4E08EE3DF011D928A957E
:103AE000E9F7ECEAF3E08EEEDF011D928A95E9F743
:103AF0001092AB031092AA03ECEDF4E082E3DF0135
:103B00001D928A95E9F7E8EDF4E084E0DF011D926B
:103B10008A95E9F790E080E00895CF93DF93C09114
:103B20002C02D0912D02CF3FDC0759F4DCD39093C7
:103B30002D0280932C0297FF09C0D0932D02C093D1
:103B40002C0284EF9FEFDF91CF91089590E080E009
:103B5000FACF8230910528F480930E0590E080E042
:103B600008958FEF9FEF08954F925F926F927F922B
:103B7000AF92BF92CF92DF92EF92FF920F931F937B
:103B8000CF93DF931F921F92CDB7DEB71A821982AF
:103B9000009709F478C06115710509F474C020918B
:103BA0002C0230912D0207EF1FEF2F3F3F4F09F4FA
:103BB00044C06B015C01412C512C3201F12CE12CF1
:103BC00010E000E09E012F5F3F4FA6014E195F09F4
:103BD000B5016E0D7F1D80912C0290912D02E1D3D5
:103BE000892B09F04AC089819A81009741F4E11438
:103BF000F10429F420910E05222309F441C0E80EB6
:103C0000F91EEC14FD04C8F480E8481684E8580650
:103C10008EE16806710418F560E070E0CB0119D7F9
:103C20002AE0420E511C611C711C0A3F4FEF140721
:103C300021F0043F8FEF1807A1F4C8010F900F90F7
:103C4000DF91CF911F910F91FF90EF90DF90CF9078
:103C5000BF90AF907F906F905F904F90089501EF6D
:103C60001FEF81E090E0013F2FEF120711F090E08D
:103C700080E0892B09F4A6CFE0CF04EF1FEFDDCF62
:103C80000AEF1FEFDACF0FEF1FEFD7CF4F925F9200
:103C90006F927F92AF92BF92CF92DF92EF92FF929C
:103CA0000F931F93CF93DF931F921F92CDB7DEB771
:103CB0001A821982009709F478C06115710509F418
:103CC00074C020912C0230912D0207EF1FEF2F3F7F
:103CD0003F4F09F444C06B015C01412C512C32016F
:103CE000F12CE12C10E000E09E012F5F3F4FA60178
:103CF0004E195F09B5016E0D7F1D80912C029091C8
:103D00002D0205D3892B09F04AC089819A81009739
:103D100041F4E114F10429F420910E05222309F461
:103D200041C0E80EF91EEC14FD04C8F480E8481602
:103D300086E9580688E96806710418F560E070E0C5
:103D4000CB0187D62AE0420E511C611C711C0E3F2C
:103D50004FEF140721F0043F8FEF1807A1F4C801BB
:103D60000F900F90DF91CF911F910F91FF90EF90E7
:103D7000DF90CF90BF90AF907F906F905F904F900B
:103D8000089502EF1FEF81E090E0023F2FEF12074E
:103D900011F090E080E0892B09F4A6CFE0CF04EF8A
:103DA0001FEFDDCF0EEF1FEFDACF0FEF1FEFD7CFF3
:103DB00080912C0290912D028F3F980749F08BD271
:103DC000892B49F48FEF9FEF90932D0280932C0263
:103DD00090E080E0089584EF9FEF0895FC01680F64
:103DE000791F90E080E0E617F70709F40895219124
:103DF000820F911DF8CF20910F05211113C08DDE88
:103E0000009791F410921505109214051092130565
:103E100010921205109211051092100521E02093C6
:103E20000F05089584EF9FEF0895AF92BF92CF9250
:103E3000DF92EF92FF920F931F93CF93DF93009740
:103E400009F460C04630510508F45CC020910F05AC
:103E5000C7EFDFEF222309F449C08C01060F171FBB
:103E6000F801C080D180C114D10409F44EC096017C
:103E70002A5F3F4F4217530708F447C07C018091E7
:103E800014059091150593838283B6016C5F7F4F73
:103E90005801A60EB71EC801A1DFF50191838083EA
:103EA00064E070E0C80160DEEC01892BF9F481E088
:103EB00090E04FDEB601C801049656DEEC01892B76
:103EC00091F462E070E0C5014FDEEC01892B59F4FA
:103ED000C7011ADC80911405909115050196909305
:103EE00015058093140590E080E033DECE01DF916C
:103EF000CF911F910F91FF90EF90DF90CF90BF90E7
:103F0000AF900895CFEFDFEFF1CFC9EFDFEFEECF46
:103F10006F927F928F929F92AF92BF92CF92DF92D9
:103F2000EF92FF920F931F93CF93DF9300D01F92D6
:103F3000CDB7DEB7009709F47AC04115510509F4F1
:103F400076C020910F0507EF1FEF222309F44DC023
:103F50003A017B015C0164E070E0CE01019696DEDF
:103F60008C01892B09F041C009811A8101151105C5
:103F700009F45AC0480186E0880E911CB701680D0B
:103F8000791D80912E0290912F0254DD6C010097D3
:103F900009F450C0A70170E060E00E94962A898170
:103FA0009A81AB81BC81EC0CFD1CF701819391934C
:103FB000A193B1937F0181E090E0CBDDB801C7010F
:103FC00065DE892B31F562E070E0C701800F911F3B
:103FD0005DDE8C01892BE9F490E080E0BADDF5012B
:103FE000D182C082F30191828082C8010F900F902C
:103FF0000F900F90DF91CF911F910F91FF90EF9055
:10400000DF90CF90BF90AF909F908F907F906F90F8
:10401000089590E080E09DDDF50111821082F301AA
:1040200011821082C60170DB09EF1FEFDECF0FEFA8
:104030001FEFDBCF06EF1FEFD8CF0097A1F04115A0
:10404000510589F02115310571F0F90136966E1789
:104050007F0748F0DC012D933C93DA01ED93FC934C
:1040600090E080E008958FEF9FEF0895AF92BF92A8
:10407000CF92DF92EF92FF920F931F93CF93DF9334
:10408000009709F45FC04115510509F45BC0653024
:10409000710508F457C020910F05C7EFDFEF222309
:1040A00091F1DC01CD90DC9011971296ED91FC918D
:1040B00096012A5F3F4FC9EFDFEF2617370719F543
:1040C000C0911005D0911105209749F521E030E00D
:1040D00030931105209310057A018C01F09313059C
:1040E000E09312055601B4E0AB0EB11CB50176DECB
:1040F0000A0D1B1DF801208131818217930729F5D4
:10410000D701CD92DC92CE01DF91CF911F910F911B
:10411000FF90EF90DF90CF90BF90AF9008952091E7
:104120001205309113052F5F3F4FCCEFDFEFE21701
:10413000F30790F2CBEFDFEF2E173F0768F2D0E0E6
:10414000C0E0CACFCFEFDFEFDECFC3EFDFEFDBCFD3
:1041500084E090E0089582E090E008958CEF9FEF76
:10416000089580E290E008951092150510921405CC
:10417000109213051092120510921105109210055D
:1041800090E080E0089590932F0280932E0208958E
:1041900080910F05882391F00BDE009789F410922F
:1041A0001505109214051092130510921205109225
:1041B00011051092100510920F05089590E080E00F
:1041C0000895009749F06115710531F0FC011182E5
:1041D0001082FB01118210820895F3CF40E855E26E
:1041E00060E070E090E080E000C08130910571F007
:1041F0001CF4892B39F008958230910559F003970A
:1042000069F0089526E083E295E077C626E080EC29
:1042100095E0FBCF26E08DE596E0F7CF26E08AEF2C
:1042200096E0F3CF1F920F920FB60F9211240BB6A8
:104230000F922F933F934F935F936F937F938F933F
:104240009F93AF93BF93EF93FF938BEC93EF909378
:10425000250180932401B9D0FF91EF91BF91AF91D7
:104260009F918F917F916F915F914F913F912F918E
:104270000F900BBE0F900FBE0F901F9018958BECF8
:1042800093EF9093250180932401A3E7B0E08C91F4
:104290008E7F8C93E0E2F1E080818C7F8083E1E28D
:1042A000F1E08081877E808380818560808380814A
:1042B0008D7F80838C9181608C930895E3E7F0E09B
:1042C000808190819E7F90838170089581E0089520
:1042D00010921605089568EE73E080E090E0B9D37F
:1042E00090E080E0089526E040E050E16EE070E06C
:1042F00083E295E002D683E295E035D5892B21F063
:1043000083E295E04AD5F7CF90E080E00895CF9220
:10431000DF92EF92FF920F931F93CF93DF936B0186
:104320007A01E9011982188283E295E01CD5892B74
:1043300069F18601CC24C39482E0D82E80911605C1
:10434000811110C083E295E028D50297B9F7C09299
:104350001605F801D1928F01888199810196998380
:104360008883ECCF888199818E159F0578F483E24C
:1043700095E013D58F3F9807A9F3F80181938F013A
:1043800088819981019699838883ECCF90E080E0C1
:10439000DF91CF911F910F91FF90EF90DF90CF9021
:1043A00008950F931F93CF93DF93EA01890183E26E
:1043B00095E00E940D2AF801D183C08390E080E04F
:1043C000DF91CF911F910F910895CF92DF92EF92DD
:1043D000FF92CF93DF938091170591E0980F909310
:1043E0001705882379F021E030E0309319052093F8
:1043F000180580931705DF91CF91FF90EF90DF9024
:10440000CF9008957894C0913202D09133026E8D8E
:104410007F8D88A199A142D120E030E040E85FE49F
:1044200046D26B017C016A8D7B8D8C8D9D8D36D142
:104430009B01AC01C701B6018AD004D16B017C019C
:104440000E948503B701A60190E080E00E94B502BA
:10445000F894809117058150CCCFCF93DF931092C1
:10446000C6071092C5072BD3B9DEC0913202D09196
:104470003302198218826FEF7FEFCB010E942B036A
:1044800070E060E090E080E00E94BD010097A9F537
:104490000E949004F8947894BE016A5D7F4F8A81EF
:1044A0009B810E94C001892B59F46FEF7FEFCB01F4
:1044B0000E944B020E942503882311F081E08AA705
:1044C000F894DDDE0E942803811104C00E942503B8
:1044D00091E0811190E09093C50778940E94A00B21
:1044E000EC0178948091C50781110AC00E944B05A8
:1044F0000E940E03F89490E080E0DF91CF91089540
:104500000E940C030E94280391E0811106C00E94C2
:10451000250391E0811101C090E09093C60790912E
:10452000C60781E0911180E08093C5078091C6079E
:104530008111C4DE219729F40E94A00B892B09F474
:10454000C7DE0E94A00BEC01C1DECCCF5058BB27C8
:10455000AA270ED057C148D130F04DD120F031F408
:104560009F3F11F41EF43DC10EF4E095E7FB0AC134
:10457000E92F59D180F3BA176207730784079507AB
:1045800018F071F49EF588C10EF4E0950B2EBA2F49
:10459000A02D0B01B90190010C01CA01A001112449
:1045A000FF27591B99F0593F50F4503E68F11A16F5
:1045B000F040A22F232F342F4427585FF3CF469586
:1045C00037952795A795F0405395C9F77EF41F16A8
:1045D000BA0B620B730B840BBAF09150A1F0FF0F72
:1045E000BB1F661F771F881FC2F70EC0BA0F621F5E
:1045F000731F841F48F4879577956795B795F7954E
:104600009E3F08F0B3CF9395880F08F09927EE0FDF
:1046100097958795089529D180F09F3740F491119F
:104620000EF43BC160E070E080E89FE3089526F05F
:104630001B16611D711D811DABC0C5C07FD008F464
:1046400081E00895F8D088F09F5790F0B92F99270E
:10465000B751A0F0D1F0660F771F881F991F1AF08D
:10466000BA95C9F712C0B13081F016D1B1E0089502
:1046700013C1672F782F8827B85F39F0B93FCCF383
:10468000869577956795B395D9F73EF49095809583
:10469000709561957F4F8F4F9F4F0895E89409C0A3
:1046A00097FB3EF490958095709561957F4F8F4F65
:1046B0009F4F9923A9F0F92F96E9BB279395F6957B
:1046C000879577956795B795F111F8CFFAF4BB0FF9
:1046D00011F460FF1BC06F5F7F4F8F4F9F4F16C05D
:1046E000882311F096E911C0772321F09EE8872FE7
:1046F000762F05C0662371F096E8862F70E060E0A3
:104700002AF09A95660F771F881FDAF7880F96951B
:10471000879597F90895A9D080F09F3740F49111BB
:104720000EF0BBC060E070E080E89FEB089526F4D7
:104730001B16611D711D811D2BC045C0990F0008FE
:10474000550FAA0BE0E8FEEF16161706E807F90763
:10475000C0F012161306E407F50798F0621B730BFE
:10476000840B950B39F40A2661F0232B242B252B7F
:1047700021F408950A2609F4A140A6958FEF811D22
:10478000811D089597F99F6780E870E060E00895C3
:10479000882371F4772321F09850872B762F07C058
:1047A000662311F499270DC09051862B70E060E0CC
:1047B0002AF09A95660F771F881FDAF7880F96956B
:1047C000879597F908959F3F31F0915020F4879590
:1047D00077956795B795880F911D9695879597F969
:1047E00008959FEF80EC089500240A94161617068A
:1047F00018060906089500240A94121613061406D2
:1048000005060895092E0394000C11F4882352F034
:10481000BB0F40F4BF2B11F460FF04C06F5F7F4FEC
:104820008F4F9F4F089557FD9058440F551F59F0D3
:104830005F3F71F04795880F97FB991F61F09F3F8D
:1048400079F087950895121613061406551FF2CFB6
:104850004695F1DF08C0161617061806991FF1CF06
:1048600086957105610508940895E5DFA0F0BEE71F
:10487000B91788F4BB279F3860F41616B11D672F4F
:10488000782F8827985FF7CF869577956795B11D24
:1048900093959639C8F30895E894BB276627772740
:1048A000CB0197F908954ADF08F48FEF08950BD0F4
:1048B000A9CF9ADF28F09FDF18F0952309F062CF87
:1048C00090CF1124EACFAFDFA0F3959FD1F3950FDE
:1048D00050E0551F629FF001729FBB27F00DB11D84
:1048E000639FAA27F00DB11DAA1F649F6627B00D14
:1048F000A11D661F829F2227B00DA11D621F739FFD
:10490000B00DA11D621F839FA00D611D221F749F0A
:104910003327A00D611D231F849F600D211D822F51
:10492000762F6A2F11249F5750408AF0E1F0882398
:104930004AF0EE0FFF1FBB1F661F771F881F9150A5
:104940005040A9F79E3F510570F01CCFA6CF5F3FA6
:10495000ECF3983EDCF3869577956795B795F795D8
:10496000E7959F5FC1F7FE2B880F911D9695879560
:1049700097F908951F920F920FB60F9211242F935B
:104980003F938F939F93AF93BF9380911B0590911B
:104990001C05A0911D05B0911E0530911A0523E05C
:1049A000230F2D3758F50196A11DB11D20931A052F
:1049B00080931B0590931C05A0931D05B0931E05C5
:1049C00080911F0590912005A0912105B0912205AD
:1049D0000196A11DB11D80931F0590932005A09302
:1049E0002105B0932205BF91AF919F918F913F9187
:1049F0002F910F900FBE0F901F90189526E8230F50
:104A00000296A11DB11DD2CF3FB7F89480911F052A
:104A100090912005A0912105B091220526B5A89B73
:104A200005C02F3F19F00196A11DB11D3FBFBA2F40
:104A3000A92F982F8827BC01CD01620F711D811D00
:104A4000911D42E0660F771F881F991F4A95D1F785
:104A500008958F929F92AF92BF92CF92DF92EF9282
:104A6000FF926B017C01D0DF4B015C01C114D104CA
:104A7000E104F104D9F0FED4C7DF681979098A0985
:104A80009B09683E73408105910580F321E0C21ABD
:104A9000D108E108F10888EE880E83E0981EA11C79
:104AA000B11CC114D104E104F10431F7FF90EF907F
:104AB000DF90CF90BF90AF909F908F9008957894A3
:104AC00084B5826084BD84B5816084BD85B5826013
:104AD00085BD85B5816085BDEEE6F0E080818160B1
:104AE0008083E1E8F0E010828081826080838081B1
:104AF00081608083E0E8F0E0808181608083E1EB89
:104B0000F0E0808184608083E0EBF0E08081816070
:104B10008083E1E9F0E08081826080838081816030
:104B20008083E0E9F0E0808181608083E1EAF0E069
:104B3000808182608083808181608083E0EAF0E010
:104B4000808181608083E1E2F1E080818260808306
:104B5000808181608083E0E2F1E0808181608083F8
:104B6000EAE7F0E0808184608083808182608083D6
:104B70008081816080838081806880831092C10001
:104B80000895863308F0865320917B00982F987003
:104B9000277F922B90937B002091300290E4299FF5
:104BA000900111248770822B80937C0080917A0081
:104BB000806480937A0080917A0086FDFCCF80919A
:104BC00078009091790008958150823108F059C0A1
:104BD000E82FF0E08827E151FA4D8F4F7DC40F2672
:104BE0001326012607260B26412616261C262026DC
:104BF00026262A262E263426382641263C264226DC
:104C00004626809180008F77809380000895809160
:104C100080008F7DF9CF80918000877FF5CF84B5AC
:104C20008F7784BD089584B58F7DFBCF8091B000D0
:104C30008F778093B00008958091B0008F7DF9CF79
:104C4000809190008F7780939000089580919000DC
:104C50008F7DF9CF80919000877FF5CF8091A00064
:104C60008F778093A00008958091A0008F7DF9CF69
:104C70008091A000877FF5CF809120018F7780936E
:104C800020010895809120018F7DF9CF809120012E
:104C9000877FF5CFCF93DF9390E0FC01E65DFE4F79
:104CA000249180599E4FFC0184918823C9F090E0A3
:104CB000880F991FFC01E053FE4FA591B491FC01B0
:104CC000EA54FE4FC591D49161110DC09FB7F8947D
:104CD0008C91209582238C938881282328839FBFE1
:104CE000DF91CF910895623051F49FB7F8943C91D1
:104CF000822F809583238C93E8812E2BEFCF8FB763
:104D0000F894EC912E2B2C938FBFEACF1F93CF9367
:104D1000DF93282F30E0F901EC51FF4F8491F90126
:104D2000E65DFE4FD491F901E059FE4FC491CC23CA
:104D3000A1F0162F811148DFEC2FF0E0EE0FFF1FDE
:104D4000EA54FE4FA591B4918FB7F894EC911111EC
:104D500008C0D095DE23DC938FBFDF91CF911F91E8
:104D60000895DE2BF8CFFC01918D228D892F90E0E4
:104D7000805C9F4F821B91098F7399270895FC01D6
:104D8000918D828D981731F0828DE80FF11D858D00
:104D900090E008958FEF9FEF0895FC01918D828D33
:104DA000981761F0A28DAE0FBF2FB11D5D968C914B
:104DB000928D9F5F9F73928F90E008958FEF9FEF8A
:104DC0000895FC01538D448D252F30E0842F90E011
:104DD000821B930B541710F0CF96089501970895F6
:104DE000FC01A48DA80FB92FB11DA35ABF4F2C9160
:104DF000848D90E001968F739927848FA689B78957
:104E00002C93A089B1898C91837080648C93938D4D
:104E1000848D981306C00288F389E02D80818F7DF0
:104E200080830895CF93DF93EC01888D8823B1F0C0
:104E3000AA89BB89E889F9898C9185FD03C08081A5
:104E400086FD0CC00FB607FCF7CF8C9185FFF2CF23
:104E5000808185FFEDCFCE01C3DFEACFDF91CF9117
:104E60000895EF92FF920F931F93CF93DF93EC017E
:104E700081E0888F9B8D8C8D98131AC0E889F98901
:104E8000808185FF15C09FB7F894EE89FF89608304
:104E9000E889F98980818370806480839FBF81E085
:104EA00090E0DF91CF911F910F91FF90EF900895C7
:104EB000F62E0B8D10E00F5F1F4F0F731127E02EA2
:104EC0008C8D8E110BC00FB607FCFACFE889F989DB
:104ED000808185FFF5CFCE0183DFF2CFEB8DEC0F24
:104EE000FD2FF11DE35AFF4FF0829FB7F8940B8F0F
:104EF000EA89FB8980818062D0CFCF92DF92EF92E6
:104F0000FF921F93CF93DF93EC016A017B01122F75
:104F1000E889F98982E08083C11481EED806E10432
:104F2000F10499F060E079E08DE390E0A70196014B
:104F3000B1D221503109410951095695479537950C
:104F40002795211580E1380790F0E889F9891082CA
:104F500060E874E88EE190E0A70196019BD22150B1
:104F60003109410951095695479537952795EC85A3
:104F7000FD853083EE85FF852083188EEC89FD89C1
:104F80001083EA89FB89808180618083EA89FB89BB
:104F9000808188608083EA89FB8980818068808342
:104FA000EA89FB8980818F7D8083DF91CF911F917A
:104FB000FF90EF90DF90CF9008951F920F920FB661
:104FC0000F9211240BB60F922F938F939F93EF9311
:104FD000FF93E0913305F09134058081E09139052C
:104FE000F0913A0582FD1DC0908180913C058F5F54
:104FF0008F7320913D05821741F0E0913C05F0E070
:10500000ED5DFA4F958F80933C05FF91EF919F9155
:105010008F912F910F900BBE0F900FBE0F901F908E
:1050200018958081F2CF1F920F920FB60F92112424
:105030000BB60F922F933F934F935F936F937F9392
:105040008F939F93AF93BF93EF93FF9383E295E08A
:10505000C7DEFF91EF91BF91AF919F918F917F91AB
:105060006F915F914F913F912F910F900BBE0F90D9
:105070000FBE0F901F901895E3E2F5E013821282A5
:1050800088EE93E0A0E0B0E084839583A683B783A5
:105090008CEB92E09183808385EC90E09587848708
:1050A00084EC90E09787868780EC90E0918B808BF2
:1050B00081EC90E0938B828B82EC90E0958B848BDB
:1050C00086EC90E0978B868B118E128E138E148E49
:1050D00008951F920F920FB60F9211240BB60F92E4
:1050E0002F938F939F93EF93FF93E091D005F091CF
:1050F000D1058081E091D605F091D70582FD1DC0D4
:1051000090818091D9058F5F8F732091DA05821786
:1051100041F0E091D905F0E0E054FA4F958F80938B
:10512000D905FF91EF919F918F912F910F900BBE19
:105130000F900FBE0F901F9018958081F2CF1F9295
:105140000F920FB60F9211240BB60F922F933F932D
:105150004F935F936F937F938F939F93AF93BF937F
:10516000EF93FF9380EC95E03BDEFF91EF91BF91D1
:10517000AF919F918F917F916F915F914F913F91EF
:105180002F910F900BBE0F900FBE0F901F90189590
:10519000E0ECF5E01382128288EE93E0A0E0B0E04C
:1051A00084839583A683B7838CEB92E0918380837D
:1051B0008DEC90E0958784878CEC90E097878687CC
:1051C00088EC90E0918B808B89EC90E0938B828BC4
:1051D0008AEC90E0958B848B8EEC90E0978B868B9D
:1051E000118E128E138E148E08951F920F920FB689
:1051F0000F9211240BB60F922F938F939F93EF93DF
:10520000FF93E0916D06F0916E068081E091730648
:10521000F091740682FD1DC09081809176068F5FAB
:105220008F7320917706821741F0E0917606F0E0C7
:10523000E35AF94F958F80937606FF91EF919F91F6
:105240008F912F910F900BBE0F900FBE0F901F905C
:1052500018958081F2CF1F920F920FB60F921124F2
:105260000BB60F922F933F934F935F936F937F9360
:105270008F939F93AF93BF93EF93FF938DE596E04A
:10528000AFDDFF91EF91BF91AF919F918F917F9192
:105290006F915F914F913F912F910F900BBE0F90A7
:1052A0000FBE0F901F901895EDE5F6E01382128265
:1052B00088EE93E0A0E0B0E084839583A683B78373
:1052C0008CEB92E09183808385ED90E095878487D5
:1052D00084ED90E09787868780ED90E0918B808BBE
:1052E00081ED90E0938B828B82ED90E0958B848BA7
:1052F00086ED90E0978B868B118E128E138E148E16
:1053000008951F920F920FB60F9211240BB60F92B1
:105310002F938F939F93EF93FF93E0910A07F09160
:105320000B078081E0911007F091110782FD1DC0ED
:105330009081809113078F5F8F73209114078217DC
:1053400041F0E0911307F0E0E650F94F958F80931C
:105350001307FF91EF919F918F912F910F900BBEAB
:105360000F900FBE0F901F9018958081F2CF1F9263
:105370000F920FB60F9211240BB60F922F933F93FB
:105380004F935F936F937F938F939F93AF93BF934D
:10539000EF93FF938AEF96E023DDFF91EF91BF91AA
:1053A000AF919F918F917F916F915F914F913F91BD
:1053B0002F910F900BBE0F900FBE0F901F9018955E
:1053C000EAEFF6E01382128288EE93E0A0E0B0E00C
:1053D00084839583A683B7838CEB92E0918380834B
:1053E00085E391E09587848784E391E097878687BA
:1053F00080E391E0918B808B81E391E0938B828BB2
:1054000082E391E0958B848B86E391E0978B868B8A
:10541000118E128E138E148E0895AF92BF92CF927A
:10542000DF92EF92FF920F931F93CF93DF936C0164
:105430007B018B01040F151FEB015E01AE18BF0845
:10544000C017D10759F06991D601ED91FC910190F7
:10545000F081E02DC6011995892B79F7C501DF91FF
:10546000CF911F910F91FF90EF90DF90CF90BF9061
:10547000AF9008950895DB018F939F9335D0BF912E
:10548000AF91A29F800D911DA39F900DB29F900D93
:1054900011240895A1E21A2EAA1BBB1BFD010DC009
:1054A000AA1FBB1FEE1FFF1FA217B307E407F507D4
:1054B00020F0A21BB30BE40BF50B661F771F881FB0
:1054C000991F1A9469F760957095809590959B0146
:1054D000AC01BD01CF010895EE0FFF1F881F8BBFE8
:1054E0000790F691E02D199409D0A59F900DB49FD7
:1054F000900DA49F800D911D11240895A29FB001CD
:10550000B39FC001A39F700D811D1124911DB29FF7
:10551000700D811D1124911D0895FB01DC0102C055
:1055200001900D9241505040D8F70895DC0101C020
:0E5530006D9341505040E0F70895F894FFCF7E
:10553E000001000080BF000000000000803F00005E
:10554E00000001FEFFFFFF01E8030000FFFF000067
:10555E000000FFFFFFFFFFFFFFFFFFFFFFFFFFFF4B
:10556E000101EF02FF00D60D020EFE00BC0D5C0B1A
:10557E00FD004E0DA80DFC00940D5C0BF600850E83
:10558E005C0BF5005B0DC40EF4004E0EDB0EDE0060
:10559E005A12D214DD00B2135C0BDA006B107310CA
:1055AE00D900ED148310E200530F5C0BE1008E0F57
:1055BE005C0BE00003105C0BD60066175C0BD5008D
:1055CE009A115C0BD40026115C0BD30097105C0B68
:1055DE00F000CF175C0BED008C175C0B0100010087
:1055EE0001000800100020000000000031270D2AE5
:0A55FE00E1261227B326CD26BF26B2
:00000001FF
