:10000000F8C0000026C1000024C1000022C1000089
:1000100020C100001EC100001CC100001AC1000068
:1000200018C1000016C1000014C1000012C1000078
:1000300010C100000EC100000CC100000AC1000088
:1000400008C1000006C1000004C1000002C1000098
:1000500000C10000FEC00000FCC0000011C600008E
:10006000F8C000000C9408090C943E09F2C000008E
:10007000F0C00000EEC00000ECC00000EAC00000CC
:10008000E8C00000E6C00000E4C00000E2C00000DC
:100090000C9494090C94CA09DCC00000DAC000007A
:1000A000D8C00000D6C00000D4C00000D2C00000FC
:1000B000D0C00000CEC00000CCC00000CAC000000C
:1000C000C8C00000C6C0000067C300000C94200A2E
:1000D0000C94560ABEC000000C94AC0A0C94E20AC0
:1000E000B8C0000000000A0B02090C0D0E0807033F
:1000F00004010000000000000000000000000000FB
:1001000000000000000000000000000000000000EF
:1001100012111000000000000000000000000000AC
:100120000000000000000000000001021020200874
:100130000810204010204080020102010804020142
:1001400001020408102040808040201008040201B1
:10015000800402018040201008040201080402010A
:100160000102040810204080010204081020408091
:1001700005050505070508080808020202020A0A23
:100180000808040404040101010101010101030341
:10019000030303030303040707070C0C0C0C0C0CEC
:1001A0000C0C0202020206060606060606060B0BE9
:1001B0000B0B0B0B0B0B00002200250028002B0063
:1001C0002E003100340002010000050108010B017E
:1001D00000002100240027002A002D0030003300F9
:1001E00001010000040107010A016709F3097F0A00
:1001F0000B0B11241FBECFEFD1E2DEBFCDBF00E05D
:100200000CBF12E0A0E0B2E0E2E2F7E100E00BBFD9
:1002100002C007900D92AE32B107D9F724E0AEE2EA
:10022000B2E001C01D92A03FB207E1F710E0C9EFB4
:10023000D0E000E006C021970109802FFE010E9456
:10024000870BC53FD10780E00807A9F70BD30C94B3
:100250008F0BD6CECF93DF93882341F0EB018150F3
:10026000BBD599838883DF91CF910895FB011182DB
:100270001082F9CF0F931F938B019C0183E0369579
:100280002795179507958A95D1F7025D1D4F462F43
:10029000477021E030E0F90102C0EE0FFF1F4A95E0
:1002A000E2F7AF01F80120812423CB01019621114F
:1002B00002C090E080E01F910F9108950F931F936B
:1002C0008B019C0183E036952795179507958A95B4
:1002D000D1F7677081E090E001C0880F6A95EAF776
:1002E000F801E25DFD4F2081452B31F4809582239A
:1002F00080831F910F910895822BFACFCF92DF92C6
:10030000EF92FF92CF93DF936B017C0160E086E375
:10031000C816D104E104F10488F486E38C0DE5D518
:10032000E6012196AE01C701B601C8DFCE01DF911B
:10033000CF91FF90EF90DF90CF9008958C2DEFCF6D
:10034000882341F08150682F70E090E080E050E019
:1003500040E0B4CF0895611101C0C7C56130E9F331
:1003600062E0FBCF662311F061E0FBC560E0FDCFEA
:10037000CF92DF92EF92FF926B017C019F7720E09A
:1003800030E040E859E51DD387FF26C020E030E08B
:1003900040E05FE3C701B6010CD487FD0CC020E04C
:1003A00030E040E05FE3C701B60194D2FF90EF90E8
:1003B000DF90CF9036C320E030E040E05FEBC70134
:1003C000B601F7D318167CF420E030E0A901C7018C
:1003D000B601F3D36B017C01C701B601FF90EF902A
:1003E000DF90CF90089520E030E040E05FE3C70168
:1003F000B6016FD2FF90EF90DF90CF90CFC2CF9237
:10040000DF92EF92FF92CF93DF9300D01F92CDB790
:10041000DEB7C0900002D0900102E0900202F0909E
:100420000302A70196016091CD047091CE048091E2
:10043000CF049091D004C5D2882341F0C092CD045E
:10044000D092CE04E092CF04F092D0046EE370E03C
:1004500080E090E00FDF9093CC048093CB0443E0E6
:1004600050E0BE016D5F7F4FF5DEC0900402D0907A
:100470000502E0900602F0900702A7019601609144
:10048000C1047091C2048091C3049091C40499D2B4
:10049000882341F0C092C104D092C204E092C30408
:1004A000F092C4046FE370E080E090E0E3DE9093AC
:1004B000C0048093BF0443E050E0BE016F5F7F4FF4
:1004C000C9DE80911802813009F06EC06091080287
:1004D0007091090280910A0290910B0249DF6B0131
:1004E0007C0120E030E040E853E46BD26FEF87FFFF
:1004F0000CC020E030E0A901C701B6015AD360E08A
:1005000087FD03C0C701B60160D28DE02BDF60918B
:10051000100270911102809112029091130228DF53
:100520006B017C0120E030E040E853E44AD26FEFF9
:1005300087FF0CC020E030E0A901C701B60139D324
:1005400060E087FD03C0C701B6013FD284E00ADF47
:100550006091140270911502809116029091170219
:1005600007DF6B017C0120E030E040E853E429D252
:100570006FEF87FF0CC020E030E0A901C701B60192
:1005800018D360E087FD03C0C701B6011ED285E025
:10059000E9DE0F900F900F900F90DF91CF91FF90B9
:1005A000EF90DF90CF90089560910C0270910D0252
:1005B00080910E0290910F0291CFAF92BF92CF9295
:1005C000DF92EF92FF921F93CF93DF931092380246
:1005D00010923702C9EBD4E085E3FE0111928A95AF
:1005E000E9F711E01CAB80E0A82E82E0B82EF501FF
:1005F00080819181A281B3818C8B9D8BAE8BBF8BCF
:10060000C12CD12C7601C394CD86DE86EF86F88A84
:100610006EE370E080E090E071DE9B8B8A8B198B3B
:1006200018821BABF50184819581A681B7818887EB
:100630009987AA87BB871D82C982DA82EB82FC82F6
:100640006FE370E080E090E059DE9F838E831D832E
:1006500018A61AABC9A6DAA6EBA6FCA661E08DE047
:100660007ADE1DA718A219ABC9A2DAA2EBA2FCA2DE
:1006700061E084E070DE1DA3188E18ABC98EDA8E9F
:10068000EB8EFC8E61E085E066DE1D8FDF91CF9101
:100690001F91FF90EF90DF90CF90BF90AF900895A3
:1006A0008091C50481111DC081E08093C5048091B3
:1006B000C6049091C704A091C804B091C9040197E1
:1006C000A105B10571F48091CA04882351F06EE34D
:1006D00070E080E090E0CEDD9093CC048093CB047A
:1006E0002FDE8091B90481111DC081E08093B9048F
:1006F0008091BA049091BB04A091BC04B091BD0458
:100700000197A105B10571F48091BE04882351F0D1
:100710006FE370E080E090E0ADDD9093C0048093E3
:10072000BF040EDE8091E104811103C081E080935B
:10073000E1048091D904811103C081E08093D90440
:100740008091D104811103C081E08093D104089588
:1007500040E855E260E070E090E080E000C0813069
:10076000910571F01CF4892B39F0089582309105C0
:1007700059F0039769F0089526E085E492E0E8C413
:1007800026E082EE92E0FBCF26E08FE793E0F7CF02
:1007900026E08CE194E0F3CF1F920F920FB60F92F8
:1007A00011240BB60F922F933F934F935F936F9348
:1007B0007F938F939F93AF93BF93EF93FF9387EFB5
:1007C00092EC909325018093240134D0FF91EF9116
:1007D000BF91AF919F918F917F916F915F914F9159
:1007E0003F912F910F900BBE0F900FBE0F901F9057
:1007F000189587EF92EC9093250180932401A3E74D
:10080000B0E08C918E7F8C93E0E2F1E080818C7F70
:100810008083E1E2F1E08081877E80838081856052
:10082000808380818D7F80838C9181608C930895FB
:1008300081E008958091390291E0980F90933902F8
:10084000882349F021E030E030933B0220933A02C4
:100850008093390208957894D2DDF894809139021A
:100860008150F6CFCF93DF931092EF041092EE04F5
:1008700051D26EDFC0911A02D0911B0219821882E8
:100880009CDEF894B6DF81E028813981232B09F0C2
:1008900080E08093EE04789478948091EE04811146
:1008A00007C0FEDEF89490E080E0DF91CF910895DC
:1008B00081E028813981232B09F480E08093EF04C3
:1008C0009091EF0481E0911180E08093EE04B0DF1D
:1008D000E4CF5058BB27AA270ED01AC10BD130F055
:1008E00010D120F031F49F3F11F41EF400C10EF43A
:1008F000E095E7FBCDC0E92F1CD180F3BA17620762
:1009000073078407950718F071F49EF54BC10EF438
:10091000E0950B2EBA2FA02D0B01B90190010C010F
:10092000CA01A0011124FF27591B99F0593F50F427
:10093000503E68F11A16F040A22F232F342F44277F
:10094000585FF3CF469537952795A795F040539577
:10095000C9F77EF41F16BA0B620B730B840BBAF047
:100960009150A1F0FF0FBB1F661F771F881FC2F7B2
:100970000EC0BA0F621F731F841F48F487957795C6
:100980006795B795F7959E3F08F0B3CF9395880F7D
:1009900008F09927EE0F979587950895ECD080F091
:1009A0009F3740F491110EF4FEC060E070E080E8E3
:1009B0009FE3089526F01B16611D711D811D6EC0F9
:1009C00088C042D008F481E00895BBD088F09F57DA
:1009D00090F0B92F9927B751A0F0D1F0660F771F8B
:1009E000881F991F1AF0BA95C9F712C0B13081F06B
:1009F000D9D0B1E00895D6C0672F782F8827B85F87
:100A000039F0B93FCCF3869577956795B395D9F7CB
:100A10003EF490958095709561957F4F8F4F9F4FD5
:100A20000895A9D080F09F3740F491110EF0BBC01B
:100A300060E070E080E89FEB089526F41B16611DCE
:100A4000711D811D2BC045C0990F0008550FAA0BC1
:100A5000E0E8FEEF16161706E807F907C0F01216D1
:100A60001306E407F50798F0621B730B840B950BD4
:100A700039F40A2661F0232B242B252B21F4089529
:100A80000A2609F4A140A6958FEF811D811D0895C6
:100A900097F99F6780E870E060E00895882371F41B
:100AA000772321F09850872B762F07C0662311F407
:100AB00099270DC09051862B70E060E02AF09A953E
:100AC000660F771F881FDAF7880F9695879597F935
:100AD00008959F3F31F0915020F487957795679561
:100AE000B795880F911D9695879597F908959FEF73
:100AF00080EC089500240A941616170618060906B5
:100B0000089500240A941216130614060506089583
:100B1000092E0394000C11F4882352F0BB0F40F40B
:100B2000BF2B11F460FF04C06F5F7F4F8F4F9F4F4B
:100B3000089557FD9058440F551F59F05F3F71F0CD
:100B40004795880F97FB991F61F09F3F79F0879534
:100B50000895121613061406551FF2CF4695F1DFBD
:100B600008C0161617061806991FF1CF869571054D
:100B7000610508940895E5DFA0F0BEE7B91788F491
:100B8000BB279F3860F41616B11D672F782F882772
:100B9000985FF7CF869577956795B11D93959639B0
:100BA000C8F30895E894BB2766277727CB0197F908
:100BB00008954ADF08F48FEF08950BD0A9CF9ADF8C
:100BC00028F09FDF18F0952309F062CF90CF112411
:100BD000EACFAFDFA0F3959FD1F3950F50E0551FFB
:100BE000629FF001729FBB27F00DB11D639FAA2782
:100BF000F00DB11DAA1F649F6627B00DA11D661FD1
:100C0000829F2227B00DA11D621F739FB00DA11DF1
:100C1000621F839FA00D611D221F749F3327A00DAB
:100C2000611D231F849F600D211D822F762F6A2F47
:100C300011249F5750408AF0E1F088234AF0EE0FCC
:100C4000FF1FBB1F661F771F881F91505040A9F7D9
:100C50009E3F510570F01CCFA6CF5F3FECF3983E4E
:100C6000DCF3869577956795B795F795E7959F5F40
:100C7000C1F7FE2B880F911D9695879597F90895DA
:100C80001F920F920FB60F9211242F933F938F93C1
:100C90009F93AF93BF9380913D0290913E02A091AC
:100CA0003F02B091400230913C0223E0230F2D37E8
:100CB00058F50196A11DB11D20933C0280933D0281
:100CC00090933E02A0933F02B09340028091410274
:100CD00090914202A0914302B09144020196A11D5D
:100CE000B11D8093410290934202A0934302B093BE
:100CF0004402BF91AF919F918F913F912F910F909F
:100D00000FBE0F901F90189526E8230F0296A11D85
:100D1000B11DD2CF789484B5826084BD84B58160E2
:100D200084BD85B5826085BD85B5816085BDEEE6F3
:100D3000F0E0808181608083E1E8F0E010828081D2
:100D400082608083808181608083E0E8F0E0808140
:100D500081608083E1EBF0E0808184608083E0EB60
:100D6000F0E0808181608083E1E9F0E08081826051
:100D70008083808181608083E0E9F0E08081816010
:100D80008083E1EAF0E080818260808380818160FD
:100D90008083E0EAF0E0808181608083E1E2F1E03D
:100DA000808182608083808181608083E0E2F1E0E5
:100DB000808181608083EAE7F0E0808184608083C5
:100DC000808182608083808181608083808180686F
:100DD00080831092C1000895863308F086532091D5
:100DE0007B00982F9870277F922B90937B00209107
:100DF000190290E4299F900111248770822B80931F
:100E00007C0080917A00806480937A0080917A00DF
:100E100086FDFCCF809178009091790008958150F3
:100E2000823108F059C0E82FF0E08827E65EF84FDD
:100E30008F4F6DC43A073E072C07320736076C0701
:100E4000410747074B075107550759075F076307D6
:100E50006C0767076D077107809180008F7780931B
:100E600080000895809180008F7DF9CF809180006F
:100E7000877FF5CF84B58F7784BD089584B58F7D46
:100E8000FBCF8091B0008F778093B0000895809160
:100E9000B0008F7DF9CF809190008F778093900084
:100EA0000895809190008F7DF9CF80919000877F89
:100EB000F5CF8091A0008F778093A0000895809156
:100EC000A0008F7DF9CF8091A000877FF5CF809122
:100ED00020018F77809320010895809120018F7DDC
:100EE000F9CF80912001877FF5CFCF93DF9390E0FA
:100EF000FC01E65DFE4F249180599E4FFC018491D8
:100F00008823C9F090E0880F991FFC01E053FE4F41
:100F1000A591B491FC01EA54FE4FC591D4916111A1
:100F20000DC09FB7F8948C91209582238C93888173
:100F3000282328839FBFDF91CF910895623051F419
:100F40009FB7F8943C91822F809583238C93E881FE
:100F50002E2BEFCF8FB7F894EC912E2B2C938FBFC5
:100F6000EACF1F93CF93DF93282F30E0F901EC51A4
:100F7000FF4F8491F901E65DFE4FD491F901E059EC
:100F8000FE4FC491CC23A1F0162F811148DFEC2F26
:100F9000F0E0EE0FFF1FEA54FE4FA591B4918FB71A
:100FA000F894EC91111108C0D095DE23DC938FBF2B
:100FB000DF91CF911F910895DE2BF8CFFC01918D29
:100FC000228D892F90E0805C9F4F821B91098F7347
:100FD00099270895FC01918D828D981731F0828DAB
:100FE000E80FF11D858D90E008958FEF9FEF089534
:100FF000FC01918D828D981761F0A28DAE0FBF2FED
:10100000B11D5D968C91928D9F5F9F73928F90E042
:1010100008958FEF9FEF0895FC01538D448D252F88
:1010200030E0842F90E0821B930B541710F0CF9682
:10103000089501970895FC01A48DA80FB92FB11D43
:10104000A35ABF4F2C91848D90E001968F739927FE
:10105000848FA689B7892C93A089B1898C918370DC
:1010600080648C93938D848D981306C00288F389D5
:10107000E02D80818F7D80830895CF93DF93EC01F5
:10108000888D8823B1F0AA89BB89E889F9898C9178
:1010900085FD03C0808186FD0CC00FB607FCF7CF2D
:1010A0008C9185FFF2CF808185FFEDCFCE01C3DF2C
:1010B000EACFDF91CF910895EF92FF920F931F93A4
:1010C000CF93DF93EC0181E0888F9B8D8C8D9813FB
:1010D0001AC0E889F989808185FF15C09FB7F89407
:1010E000EE89FF896083E889F98980818370806453
:1010F00080839FBF81E090E0DF91CF911F910F919E
:10110000FF90EF900895F62E0B8D10E00F5F1F4FAC
:101110000F731127E02E8C8D8E110BC00FB607FCBC
:10112000FACFE889F989808185FFF5CFCE0183DF89
:10113000F2CFEB8DEC0FFD2FF11DE35AFF4FF08244
:101140009FB7F8940B8FEA89FB8980818062D0CFAA
:10115000CF92DF92EF92FF921F93CF93DF93EC0138
:101160006A017B01122FE889F98982E08083C1142A
:1011700081EED806E104F10499F060E079E08DE3B6
:1011800090E0A7019601A1D22150310941095109EE
:101190005695479537952795211580E1380790F0AA
:1011A000E889F989108260E874E88EE190E0A7018F
:1011B00096018BD221503109410951095695479525
:1011C00037952795EC85FD853083EE85FF85208357
:1011D000188EEC89FD891083EA89FB898081806102
:1011E0008083EA89FB89808188608083EA89FB8922
:1011F000808180688083EA89FB8980818F7D8083FC
:10120000DF91CF911F91FF90EF90DF90CF900895E5
:101210001F920F920FB60F9211240BB60F922F93BD
:101220008F939F93EF93FF93E0915502F0915602B5
:101230008081E0915B02F0915C0282FD1DC0908193
:1012400080915E028F5F8F7320915F02821741F061
:10125000E0915E02F0E0EB5BFD4F958F80935E02C4
:10126000FF91EF919F918F912F910F900BBE0F9057
:101270000FBE0F901F9018958081F2CF1F920F9292
:101280000FB60F9211240BB60F922F933F934F93EB
:101290005F936F937F938F939F93AF93BF93EF93DE
:1012A000FF9385E492E0C7DEFF91EF91BF91AF918C
:1012B0009F918F917F916F915F914F913F912F916E
:1012C0000F900BBE0F900FBE0F901F901895E5E486
:1012D000F2E01382128288EE93E0A0E0B0E0848313
:1012E0009583A683B78380E292E09183808385EC27
:1012F00090E09587848784EC90E09787868780ECE0
:1013000090E0918B808B81EC90E0938B828B82ECD0
:1013100090E0958B848B86EC90E0978B868B118E7A
:10132000128E138E148E08951F920F920FB60F9285
:1013300011240BB60F922F938F939F93EF93FF93EC
:10134000E091F202F091F3028081E091F802F091D5
:10135000F90282FD1DC090818091FB028F5F8F7327
:101360002091FC02821741F0E091FB02F0E0EE5187
:10137000FD4F958F8093FB02FF91EF919F918F918D
:101380002F910F900BBE0F900FBE0F901F901895CE
:101390008081F2CF1F920F920FB60F9211240BB6DD
:1013A0000F922F933F934F935F936F937F938F93FE
:1013B0009F93AF93BF93EF93FF9382EE92E03BDE58
:1013C000FF91EF91BF91AF919F918F917F916F911D
:1013D0005F914F913F912F910F900BBE0F900FBED9
:1013E0000F901F901895E2EEF2E01382128288EEC1
:1013F00093E0A0E0B0E084839583A683B78380E286
:1014000092E0918380838DEC90E0958784878CECCB
:1014100090E09787868788EC90E0918B808B89ECB1
:1014200090E0938B828B8AEC90E0958B848B8EEC92
:1014300090E0978B868B118E128E138E148E0895EA
:101440001F920F920FB60F9211240BB60F922F938B
:101450008F939F93EF93FF93E0918F03F09190030D
:101460008081E0919503F091960382FD1DC09081EB
:10147000809198038F5F8F7320919903821741F0B9
:10148000E0919803F0E0E158FC4F958F809398032A
:10149000FF91EF919F918F912F910F900BBE0F9025
:1014A0000FBE0F901F9018958081F2CF1F920F9260
:1014B0000FB60F9211240BB60F922F933F934F93B9
:1014C0005F936F937F938F939F93AF93BF93EF93AC
:1014D000FF938FE793E0AFDDFF91EF91BF91AF9165
:1014E0009F918F917F916F915F914F913F912F913C
:1014F0000F900BBE0F900FBE0F901F901895EFE747
:10150000F3E01382128288EE93E0A0E0B0E08483DF
:101510009583A683B78380E292E09183808385EDF3
:1015200090E09587848784ED90E09787868780EDAB
:1015300090E0918B808B81ED90E0938B828B82ED9C
:1015400090E0958B848B86ED90E0978B868B118E47
:10155000128E138E148E08951F920F920FB60F9253
:1015600011240BB60F922F938F939F93EF93FF93BA
:10157000E0912C04F0912D048081E0913204F091EF
:10158000330482FD1DC09081809135048F5F8F737D
:1015900020913604821741F0E0913504F0E0E45EDA
:1015A000FB4F958F80933504FF91EF919F918F9121
:1015B0002F910F900BBE0F900FBE0F901F9018959C
:1015C0008081F2CF1F920F920FB60F9211240BB6AB
:1015D0000F922F933F934F935F936F937F938F93CC
:1015E0009F93AF93BF93EF93FF938CE194E023DD40
:1015F000FF91EF91BF91AF919F918F917F916F91EB
:101600005F914F913F912F910F900BBE0F900FBEA6
:101610000F901F901895ECE1F4E01382128288EE8F
:1016200093E0A0E0B0E084839583A683B78380E253
:1016300092E09183808385E391E09587848784E3BA
:1016400091E09787868780E391E0918B808B81E39F
:1016500091E0938B828B82E391E0958B848B86E380
:1016600091E0978B868B118E128E138E148E0895B7
:10167000AF92BF92CF92DF92EF92FF920F931F93A0
:10168000CF93DF936C017B018B01040F151FEB01DE
:101690005E01AE18BF08C017D10759F06991D60195
:1016A000ED91FC910190F081E02DC6011995892BF7
:1016B00079F7C501DF91CF911F910F91FF90EF90C6
:1016C000DF90CF90BF90AF900895A1E21A2EAA1B91
:1016D000BB1BFD010DC0AA1FBB1FEE1FFF1FA217E2
:1016E000B307E407F50720F0A21BB30BE40BF50BDF
:1016F000661F771F881F991F1A9469F76095709568
:10170000809590959B01AC01BD01CF010895EE0F2E
:10171000FF1F881F8BBF0790F691E02D1994F89456
:02172000FFCFF9
:101722000000803F0000803F000000000000803F7A
:10173200000000000000000001013702000000006C
:0E1742005C08380B0C083D08DE07F807EA07C4
:00000001FF
